:020000040800F2
:1000000000800120B51E0008E91E0008E91E000856
:10001000E91E0008E91E0008E91E000800000000B3
:10002000000000000000000000000000E91E0008C1
:10003000E91E000800000000E91E0008E91E000893
:10004000E91E0008E91E0008E91E0008E91E000874
:10005000E91E0008E91E0008E91E0008E91E000864
:10006000E91E0008E91E0008E91E0008E91E000854
:10007000E91E0008E91E0008E91E0008E91E000844
:10008000E91E0008E91E0008E91E0008B10C00087E
:10009000B50C0008E91E0008AD0C0008E91E0008B8
:1000A000E91E0008E91E0008E91E0008E91E000814
:1000B000E91E0008E91E0008E91E0008E91E000804
:1000C000E91E0008E91E0008E91E0008E91E0008F4
:1000D000E91E0008E91E0008E91E0008E91E0008E4
:1000E000E91E0008E91E0008E91E0008E91E0008D4
:1000F000E91E0008E91E0008E91E0008E91E0008C4
:10010000E91E0008E91E0008E91E0008E91E0008B3
:10011000E91E0008E91E0008E91E0008E91E0008A3
:10012000E91E0008E91E0008E91E0008E91E000893
:10013000E91E0008E91E0008E91E0008E91E000883
:10014000E91E0008E91E0008E91E0008E91E000873
:10015000E91E0008E91E0008E91E0008E91E000863
:10016000E91E0008E91E0008E91E0008E91E000853
:10017000E91E0008E91E0008E91E00080000000052
:10018000E91E0008E91E000810B5054C237833B9B4
:10019000044B13B10448AFF300800123237010BD5A
:1001A000C808002000000000481D0108084B10B5D9
:1001B0001BB108480849AFF300800848036803B939
:1001C00010BD074B002BFBD0BDE81040184700BF07
:1001D00000000000481D0108CC080020C4080020D1
:1001E00000000000154B002B08BF134B9D46A3F5E4
:1001F000803A00218B460F461348144A121A06F023
:10020000CDFF0F4B002B00D098470E4B002B00D09A
:1002100098470020002104000D000D48002802D05E
:100220000C480BF035F906F0C9FD2000290001F05B
:10023000B2FB06F005F800BF0000080000800120B6
:100240000000000089190008C8080020E40E002002
:1002500091B4000881C4000807EE101A70B5FDEED5
:10026000C77A104C104BC4ED007AF8EEE77A0546D9
:1002700077EE677A9FED0D7AC3ED007A67EE877AA5
:1002800017EE900A0FF0C2F804F0C0FE0FF0ACFBBE
:10029000074A08491060034622682846BDE87040B6
:1002A00007F020B9E8080020E40800200050C34708
:1002B000EC080020BC0C0108704710B5044601F0A2
:1002C000C1FB204610BD0000014B0360704700BF1A
:1002D000D00C0108490010B54160782001F0A6FB60
:1002E00016221721044604F0F5F9044B04491C605A
:1002F000204604F02FFA012010BD00BFF8080020AE
:10030000801A06003921FFF7E5BF00000000000059
:100310002DE9F04F2DED048B83B0A94CA94DAA4EC9
:10032000DFF8B89201930023C9F8003023602B60F6
:10033000336048789DF84070DDF844A00002934691
:1003400088460FF051F80FF097FB206098F80030C6
:1003500008EE903A07EE900AF8EEE88A77EEA88A5F
:10036000C4ED008A9BF8010000020FF03DF80FF089
:1003700083FB28609BF8003008EE103A07EE900AE5
:10038000B8EEC88A334637EE888ADFED907A85ED7D
:10039000008AF4EE678AF1EE10FA48D0B4EE678A6C
:1003A000F1EE10FA43D088EE289A012F89ED009AD9
:1003B00006D003D3022F3AD1854A02E0854A00E0F5
:1003C000854A1A6018680FF021F802460B4662A1B0
:1003D000D1E900010FF098F906460F4618EE900A91
:1003E0000FF014F832463B460FF064F80FF044FB70
:1003F000206008EE900A18EE100A0FF007F83B464E
:1004000032460FF057F80FF037FB019B286007EEDC
:10041000900A93B9B3EE007A694B68EE878A67EE6B
:10042000877AC3ED008A674BC3ED007A05E00022AE
:100430000023CAE90023002087E0F6EE007AB4EE3C
:10044000E79AF1EE10FA22D520680EF0DFFF04469D
:1004500019EE100A0D460EF0D9FF41A3D3E900238F
:1004600004F006FE40A3D3E90023804689462046D7
:1004700029460FF01FF83EA3D3E9002306460F4696
:10048000204629460FF016F842464B464DE019EE3D
:10049000100A0EF0BBFF38A3D3E9002306460F462F
:1004A0000FF07AFA80B120680EF0B0FF34A3D3E9E0
:1004B00000230EF0FFFF064628680F460EF0A6FF49
:1004C00031A3D3E9002330E03046394630A3D3E9E5
:1004D00000230FF061FA80B120680EF097FF2EA381
:1004E000D3E900230EF0E6FF064628680F460EF01B
:1004F0008DFF2BA3D3E9002317E0304639462AA30A
:10050000D3E900230FF048FAD0B120680EF07EFF47
:1005100027A3D3E900230EF0CDFF064628680F4637
:100520000EF074FF24A3D3E900230EF0C3FF0246AC
:100530000B46304639460EF009FECAE9000103E0D9
:1005400000220023CAE90023012003B0BDEC048B84
:10055000BDE8F08FAFF3008000000000002079407C
:10056000666666666666F63FC58F31772D219F3FCA
:100570005839B4C876BEAF3F85EB51B81E85E33F0E
:10058000C7BAB88D06F0963F5839B4C876BE9F3FBB
:100590009A9999999999E93F2D431CEBE2368A3F44
:1005A0004BC8073D9B558F3FCDCCCCCCCCCCF43F3A
:1005B000B2632310AFEB573FD2FBC6D79E59523FD1
:1005C000FC08002000090020F008002000FF7F4701
:1005D0000000C94333335B410000CA42F4080020E5
:1005E000F0B585B00446174601F00F0104AA0D4D81
:1005F00061F07F011E46012302F8041D2868009364
:10060000616804F0D7F850B90090616828683A46EC
:10061000334604F0F0F8B0FA80F0400900E0002022
:1006200005B0F0BDF80800200A4601230A21FFF7B3
:10063000D7BF0A4601210B46FFF7D2BF0A46022365
:100640000C21FFF7CDBF0A4602230E21FFF7C8BFDA
:100650001FB58DF80D20002200920346094A01F0D3
:100660000F0161F07F018DF80C101068596803AA22
:10067000022304F09FF8B0FA80F0400905B05DF85D
:1006800004FB00BFF808002000210322FFF7E0BFB1
:10069000012905D003D302290ED1102100E0002149
:1006A00012B1012A08D1102201F00F0322F00F022B
:1006B00001211A43FFF7CCBF002070470B4B0C49B8
:1006C0001A6801321A600B68412A03F101030B60BA
:1006D00004DD084A117809B901211170B3F57A7F58
:1006E000C2BF054B01221A70704700BFD00900201D
:1006F00078090020040900207009002003681847C9
:1007000008B10B680360704770470000B0F9003013
:10071000013310B5044604D1064807493F2204F0CE
:1007200057FBA3681A6863681A4214BF01200020AF
:1007300010BD00BFE40C0108FC0C010838B5B0F98D
:100740000030013304460D4604D1064806493522DF
:1007500004F03EFB63680DB1E26800E022691360BB
:1007600038BD00BFE40C0108FC0C010837B50820B7
:1007700001F05CF92A4D0446FFF7A6FD29499DF8D2
:10078000002029482C6004F037F92868FFF7BAFDEB
:10079000044610B92448254906E02868FFF774FF8D
:1007A000044620B92048224904F026F935E028689B
:1007B0006946FFF739FF04461B480CB91D49F3E7AA
:1007C0001D499DF8002004F017F9286801A9FFF7DA
:1007D00030FF28B91448194904F00EF900241CE030
:1007E00017499DF80420104804F006F928680221F2
:1007F0000122FFF74DFF044610B90B481149D3E71A
:10080000286801A9FFF715FF04460028E2D0064832
:100810000D499DF8042004F0EFF8204603B030BDE8
:1008200074090020400D010854090020580D0108EA
:100830007E0D0108A00D0108C60D0108D30D0108A9
:100840000C0E01082E0E01086C0E01082DE9F04770
:100850004349444886B004F0CFF84349414804F086
:10086000CBF84048414904F0C7F800263446404AD6
:100870001378002B5BD0002313703E4A3E4D13606B
:1008800012232B70DFF8FC80DFF814913B4FD9F86E
:10089000000034236B70562388F8003029467823F3
:1008A00088F80130FFF7CAFE28B92E4834493A6863
:1008B00004F0A2F80134D9F800003249FFF7C3FE72
:1008C00028B928482E493A6804F096F801340223E2
:1008D000DFF8D0A00093CDF804A0D9F80000264995
:1008E000284A0123FFF714FD28B91E4826493A6813
:1008F00004F082F80136DAE900010FF0BDF8DFF804
:10090000A89001464846FFF7A7FC2A78009298F87D
:100910000120019298F800200292CDF80C900494E6
:1009200005966B780F4819493A6804F065F8184B3A
:100930001A7882B11749184800220A601A700F4AC3
:10094000136801331360FFF7E1FEB0FA80F112483B
:100950004909FFF7F3FE114804F0B2FA87E700BF38
:100960008C0E010854090020A40E0108B20E0108E3
:1009700004090020D0090020E8090020C409002053
:100980001A0F0108EA0900202F0F0108420F010881
:100990007009002078090020B009002017B7D1386D
:1009A00074090020C80900207C090020C36810B524
:1009B00004460BB19B689847204610BD70B50546AC
:1009C000074B45F8283B064645B100F14804AC42C8
:1009D00004D0103C2046FFF7E9FFF8E7304670BD31
:1009E0009816010810B50446FFF7E8FF204601F00D
:1009F00029F8204610BD000010B5084B036003F134
:100A000020025C330446C26403654C3003F0CEFF21
:100A10002046FFF7D3FF204610BD00BF8815010810
:100A2000A0F14C00FFF7E8BFA0F15000FFF7E4BFD2
:100A300038B50546064B45F8183B044604F090F8D7
:100A40002846FFF7B3FF204604F0C0F8204638BD23
:100A5000B016010810B50446FFF7EAFF204600F083
:100A6000F1FF204610BD38B5CB6804460D460BB1EA
:100A70005B689847EB68E360204638BD10B52248B4
:100A800088B00021FFF75AFE20480021FFF756FEEC
:100A90000C211F4803F09CFFFFF768FE68B91B4854
:100AA000FFF734FEB0FA80F118484909FFF746FE17
:100AB0004FF07E5004F004FAF1E716491448164C42
:100AC00003F09AFF4FF07E5004F0FAF9134B0093B5
:100AD00004A8134B03936946FFF7C5FF2046FFF7B1
:100AE00065FF1CB1204604A9FFF7BDFF4FF47A71E2
:100AF0000C4804F021F804A8FFF758FF6846FFF7F8
:100B000055FFFFF7A3FE00BFB0090020D409002065
:100B100054090020640F0108A0090020BD06000848
:100B2000D80C01088809002010B50446FFF764FFBF
:100B3000204600F087FF204610BDA0F14C00F3E7EF
:100B4000A0F15000F0E70000F7B51A4D1A4E284604
:100B500004F01CF80024194B2B606C622846184DD9
:100B600018493246142700F051FF3A4621462846DC
:100B700006F014FB2846144D482104F060F83A466C
:100B80002146284606F00AFB284612210F4D04F0A4
:100B900056F84FF416530093284635213622234643
:100BA00003F08EFE0A492846324603B0BDE8F04005
:100BB00000F02CBF8809002000000020B0160108BA
:100BC000B0090020310A0008D409002008090020DB
:100BD000F90900082E4B5A6970B52E4CD1072360D5
:100BE00017D598682C4A99680A4099682B4B03409E
:100BF0002A48834207D0284B9A4204D0284B284ADF
:100C00000B40934205D1274B274A1B6810680121EE
:100C100098472368DA685B69920707D09E0705D575
:100C2000204B214A1B681068002198472368996966
:100C30005A695B698D0709D5900507D5190405D553
:100C4000184B194A1B6810680521984723689E694C
:100C50005D695B69C6F38006C5F3802546B13DB189
:100C60001A0405D50F4B104A1B68106807219847D6
:100C700023685B6956B14DB11B0407D5094B0A4A7D
:100C80001B6810680221BDE87040184770BD00BFA6
:100C900000640040EC090020000300080300000489
:100CA000000003102C0A0020300A0020FFF792BF3A
:100CB000FFF790BFFFF78EBF10B50C4CA268A46879
:100CC000B4F1006F13460CD1131F094A53F8044FB7
:100CD00042F8044F074CA242F8D1044A4FF0805327
:100CE0009360103043F8201010BD00BF00ED00E00D
:100CF000FCFFFF0F84010010431C10B5044604D113
:100D000006480749272204F063F82046002100F036
:100D100013FD04F00F040120A04010BDE90C0108F0
:100D20001411010870B504464B1C0E46218010D0EA
:100D3000C1F3031000F098FC05463046FFF7DCFFD6
:100D400005F11003A36005F1180328356060E36026
:100D5000256170BDB0F9000000F01CBD38B5B0F9D8
:100D60000030013305460C4604D1074807494722A5
:100D700004F02EF8012CB5F900000CBF214600212B
:100D8000BDE8384000F0D8BCE40C0108141101089B
:100D900038B5144B1A68116911F0020F1C4607D0C0
:100DA000D368980704D56FF00203136104F00AF8C2
:100DB00023681A69510714D5DA68520711D56FF004
:100DC0000402094D1A615C6A2B68E31AB3F57A7F55
:100DD00007D301F095F8034B1B6804F57A729A6308
:100DE0002C6038BDA40E0020340A002030B589B034
:100DF00003A801A902F042FC02F010FC234B019071
:100E00009A6D234C42F008029A659A6D02F008022E
:100E10000292029A9A6B42F008029A639A6B22F04D
:100E200008029A63069AA3F5013323604FF0FF335B
:100E3000E360184B02B14000B0FBF3F0013800252D
:100E4000606013482561A560656102F0F7FF3220FC
:100E50001149FFF731FF114B0D484FF480225A60C2
:100E6000294603F011F80421094803F00DF823681E
:100E70000B4A596A1160126802F57A729A63DA684D
:100E8000284642F00402DA6009B030BD001002408A
:100E9000A40E002040420F00910D000800E100E088
:100EA000340A002010B5054B9C68204601F078FB01
:100EB0002046BDE8104001F042BF00BF380A0020C4
:100EC00010B5054B5C68204601F06AFB2046BDE882
:100ED000104001F034BF00BF380A002010B5054BA8
:100EE0001C68204601F05CFB2046BDE8104001F084
:100EF00026BF00BF380A00202DE9F84390F85C7047
:100F000090F85D607DB274B2804689462846FFF74E
:100F1000D3FE49462046FFF7CFFE98F86C30002BF1
:100F20000CBF02230123002DA8BF05F160424FEA48
:100F30000313AFBF02F56142144A07F00F00D9B2A4
:100F4000AABFD9B2115482F80013002CADBF04F12E
:100F5000604206F00F010D4A02F56142B5BFDBB2F7
:100F6000DBB2535482F800336D090123084A07F0BD
:100F70001F07640906F01F0603FA07F1B34042F8A1
:100F8000251042F82430BDE8F88300BF14ED00E0DE
:100F900000E100E010B590F85D4090F95C0000F0D1
:100FA000CFFF60B2BDE8104000F0CABF90F85030EB
:100FB000012B00F1040107D004D3022B054818BF10
:100FC000002002E0044800E00448054A42F82310EB
:100FD000704700BFA50E0008DD0E0008C10E000816
:100FE000380A0020194A03681268416DB2FBF1F11A
:100FF000142243604A439969090401D5013AFAD1A0
:10100000134A934208D1134B9A6B42F400129A632D
:101010009A6B22F4001216E00F4A934208D10D4B4E
:101020009A6B42F480029A639A6B22F480020AE07F
:101030000A4A934208D1074B9A6B42F400029A6322
:101040009A6B22F400029A63704700BF08000020E8
:10105000005400400010024000580040005C004076
:101060004B4AF8B513680D46416DB3FBF1F11423FB
:101070004B4341680446061D17468A69120401D590
:10108000013BFAD1434B9D420BD0434B9D4208D0CC
:10109000424B9D4205D04248424940F26D1203F056
:1010A00097FE414B3A689A423C4B0AD13A4A9542E4
:1010B00003D09D4203D03D4B0CE03D4B14E03D4B33
:1010C00012E03D498A420ED1334A954207D09D42F3
:1010D00007D03A4B2F4A954218BF002304E0384B03
:1010E00002E0384B00E00023A3602C4B9D4217D157
:1010F0002268354B9A4203D14FF4801001F090FEE4
:101100002268324B9A4203D14FF4001001F088FE5E
:1011100022682F4B9A4203D14FF4800001F080FEE9
:101120002368294A934208D102F5DE32D2F888308A
:1011300023F4405343F4805316E0244A934208D1E9
:1011400002F5DC32D2F8883023F4404343F4804384
:101150000AE01F4A934209D102F5DA32D2F8883008
:1011600023F4403343F48033C2F888300021304602
:1011700001F030FE01232361002363612362636277
:10118000E360A361304601F0A0F86565F8BD00BFDB
:1011900008000020A0860100801A060040420F00CF
:1011A0006B1101089F11010800B4C4046B4EC130DB
:1011B0003A14D110270E8100006CDC02553EA020AD
:1011C000210C8010160850000054004000580040C8
:1011D000005C0040F0B5044685B00E46084656490E
:1011E000154603F06BFD55490746284603F066FD9A
:1011F000A4F858600146A4F85A50384603F040FD60
:101200002060013004D14E484E49FC2203F0E0FD3D
:1012100022684D4B9A4225D1002384F8503003F1C7
:10122000804303F5043330469A6D434942F400127B
:101230009A659B6D03F400130193019B03F002FD7B
:1012400028463E4903F0FEFC3046012100F0A2FA98
:101250002846012100F09EFA1F2384F85C302023E9
:1012600084F85D302268394B9A4223D1012703F577
:10127000DC3384F850709A6D2F4942F480029A65ED
:101280009B6D03F4800302933046029B03F0DAFC6B
:1012900028462A4903F0D6FC3046394600F07AFA4F
:1012A0002846394600F076FA212384F85C30222360
:1012B00084F85D302268264B9A4222D1022384F8BA
:1012C0005030244B1C499A6D42F400029A659B6D84
:1012D00003F4000303933046039B03F0B3FC28465A
:1012E000164903F0AFFC3046012100F053FA2846BE
:1012F000012100F04FFA482384F85C30492384F838
:101300005D30636D0BB9144B63652046FFF76AFED1
:101310002046616DFFF7A4FE00234FF0007284F8B1
:101320006D3084F86C3084F86E30226684F8643056
:10133000A36605B0F0BD00BF7C0F0108481001088E
:10134000E61101089F1101080054004000580040B8
:10135000005C004000100240A08601002DE9F3412E
:1013600004461646089804F104081D468FB203B1DE
:101370005AB94046394601220A2300F0F4FF0028FA
:101380000CBF00206FF001004BE0236EB3F1007F33
:1013900005D110B14FF0007308E0206607E033F08C
:1013A000807304D10028F5D14FF0807323660023A9
:1013B00084F864302046FFF7F9FD01462046FFF728
:1013C0009BFD236E0093404639463246ABB201F096
:1013D00093F810BB144B666D1B68B3FBF6F61E2327
:1013E0005E4305FB066694F8643013F01E0F05D1CA
:1013F000013E03D0012003F058FDF4E72046FFF73B
:10140000C9FD1EB194F86430082B09D02046B4F908
:101410005810B4F95A20FFF7DDFE6FF0010000E02C
:10142000284602B0BDE8F081080000202DE9F34114
:1014300004461646089804F104081D468FB203B10D
:101440005AB94046394601220A2300F08CFF002891
:101450000CBF00206FF001004BE0236EB3F1007F62
:1014600005D110B14FF0007308E0206607E033F0BB
:10147000807304D10028F5D14FF0807323660023D8
:1014800084F864302046FFF791FD01462046FFF7BF
:1014900033FD236E0093404639463246ABB200F02E
:1014A000EBFF10BB144B666D1B68B3FBF6F61E23F7
:1014B0005E4305FB066694F8643013F01E0F05D1F9
:1014C000013E03D0012003F0F0FCF4E72046FFF7D3
:1014D00061FD1EB194F86430082B09D02046B4F9A0
:1014E0005810B4F95A20FFF775FE6FF0010000E0C4
:1014F000284602B0BDE8F08108000020836F07B5E0
:10150000ABB1D0F8883093B190F8702012B14FF0A1
:10151000007201E04FF08072C265C26DB0F86C10CD
:101520000092D0F884209BB200F0E6FF02E008238E
:1015300080F8603003B05DF804FB082380F8603069
:10154000704738B5051D0446C260284600F0BDFE50
:101550002046FFF72BFD01462046FFF7CDFC28462D
:10156000BDE8384001F008B870B590F868500446FE
:10157000061F05B18568B4F95410B4F956203046F9
:10158000FFF728FE00210B4630462A46FFF7D9FF19
:10159000022384F8603070BD012902D180F86910FF
:1015A000704711B9012380F86A307047002380F832
:1015B00069307047002380F86A30704700F0DCBF64
:1015C00010B5044650F80429136823F0FE03136095
:1015D000FFF7E0FC022384F8603010BD08B503F08B
:1015E00011FC962003F07AFC962003F077FCF8E7D4
:1015F00030B50546A1B00C4603F004FC2946684608
:10160000224609F0FBFD051E03DC03F025FC21B09A
:1016100030BD094B1B6823B908483521362200F03C
:10162000FFFA00241DF804100448013400F02AFCDD
:10163000AC42F7D1E9E700BFFC0D00207C0E002092
:101640000FB407B504A951F8040B0191FFF7D0FFBF
:1016500003B05DF804EB04B0704708B502F0A4FED7
:10166000BDE8084000F041BC7FB507284ED8DFE850
:1016700000F004111D29354D4D41284BDA6C42F024
:101680000102DA64DB6C03F001030093009B4FF06E
:1016900090403FE0214B2248DA6C42F00202DA64CB
:1016A000DB6C03F002030193019B33E01B4B1D48ED
:1016B000DA6C42F00402DA64DB6C03F00403029398
:1016C000029B27E0154B1848DA6C42F00802DA64F6
:1016D000DB6C03F008030393039B1BE00F4B1348E1
:1016E000DA6C42F01002DA64DB6C03F0100304934E
:1016F000049B0FE0094B0E48DA6C42F08002DA647A
:10170000DB6C03F080030593059B03E0094803F0BD
:10171000C1FB002007B05DF804FB00BF00100240D1
:101720000004004800080048000C00480010004871
:10173000001C00480012010830B5431C87B0054664
:101740000C4604D110481149632203F041FBC5F354
:101750000310FFF789FF05F00F050123AB4004F0EC
:101760000F0201930A4B53F822300293C4F3021381
:101770000393C4F3C314032301A90493059400F055
:1017800017FC07B030BD00BFE90C010821120108A9
:1017900078120108431C70B506460C4604D10D486A
:1017A0000D49882203F014FBC6F30310FFF75CFF1A
:1017B00006F00F05C1686B0003229A4021EA02027D
:1017C000032CC260C26828BF00249C401443C4603C
:1017D00070BD00BFE90C0108211201087047704775
:1017E000036870B504465B6A9847236820461B6906
:1017F000002101229847431C0646236804D1204655
:101800009B6A9847304670BD1B6920460021022222
:10181000984723680546314600221B6920469847B1
:10182000236820469B6A9847284670BD08B5084B38
:101830001B685BB907483521362200F0F1F90548ED
:101840004FF41651BDE8084000F0DEBA08BD00BFF5
:10185000FC0D00207C0E002002284FF0000309DD63
:10186000C21E074951F8220041F8223020B1036816
:101870005B681847184670474FF0FF30704700BF4D
:10188000580A0020022870B50C4615460FDC0E4B96
:101890001B680BB9FFF7CAFF6619B44205D00B48A5
:1018A00014F8011B00F0EEFAF7E7284670BD033884
:1018B000074B53F8200020B10368BDE870401B6857
:1018C00018474FF0FF3070BDFC0D00207C0E00204B
:1018D000580A0020022810B50C460ADC0B4B1B6886
:1018E0000BB9FFF7A3FF0A4800F0AAFA2070012005
:1018F00010BD0338074B53F8200020B10368BDE842
:1019000010409B6818474FF0FF3010BDFC0D0020C1
:101910007C0E0020580A0020022807DD0338064B01
:1019200053F8200020B10368DB6818470120704796
:101930004FF0FF30704700BF580A0020022807DD33
:101940000338064B53F8200020B103681B69184781
:10195000002070474FF0FF30704700BF580A00204A
:10196000022808B504D84FF400534B60002008BD8E
:1019700004F060FC092303604FF0FF3008BD08B598
:10198000012004F05DFC704708B5FFF766FEFFF725
:10199000FAFF08BD704708B5FFF7FCFFBDE8084037
:1019A000FFF76CB80C4A136810B51844EFF30881C0
:1019B000884205D3094B0C221A604FF0FF3010BD4E
:1019C0000749096821B1074C246821448842F1D2B3
:1019D0001060184610BD00BF04000020E00E00207B
:1019E000540A0020580B0020074C08B52368054610
:1019F000986804F03FFD2368D86804F03BFD0DB102
:101A0000FFF7ECFDFEE700BF38040020012070471F
:101A1000002105F0E3BC7047704708B5FFF7FBFFF6
:101A200008BD08B5FFF7F8FF08BD000010B505F0C8
:101A30005DFA044610B9024803F02CFA204610BDA6
:101A40006E13010808B105F059BA7047034610B586
:101A500053F8042B044602B9036022689A4204D06A
:101A600003480449592203F0B3F9206810BD00BFB0
:101A7000AA130108BE1301080B4B10B503600446FE
:101A80000A48FFF7E3FF0023094A52F82310A14256
:101A900004BF002142F823100133402BF4D1034846
:101AA000FFF7D4FF204610BD201401084C0A002087
:101AB000580A00202DE9F34188463649054605F0CD
:101AC000B3FD044610B9FFF7B1FE5EE02846324987
:101AD00005F0AAFD18B9FFF7A9FE012455E0284634
:101AE0002E4905F0A1FD18B9FFF7A0FE02244CE035
:101AF0002B48FFF7ABFF00242A4E56F82430374618
:101B000033B10134402CF7D12548FFF79FFF3AE06D
:101B10004FF0FF33224846F82430FFF797FF2B7829
:101B20003A2B06D1284620496A4605F001FD009867
:101B300024E06846294602F071FD684602F0B0FDD7
:101B400010B946F824001EE0684602F097FD18B16F
:101B5000684602F09CFD11E0684602F088FD0546EB
:101B600010B946F824000EE0036868469E6802F04B
:101B700073FD28F4803201462846B04747F8240018
:101B800008B1033401E04FF0FF34204602B0BDE855
:101B9000F08100BFB01201080F140108B71201084C
:101BA0004C0A0020580A00200B1401080346406824
:101BB00019497022424310B588181C688C509A68E5
:101BC00042600246D96842F8081F19695160596994
:101BD000916000F11002D96991600021A0F85210C3
:101BE000A0F85010A0F85A10A0F85810B3F91A1025
:101BF000013101D1082305E0B3F9183001330CBFDE
:101C000004230C23536002F09DFB20B10348BDE880
:101C1000104003F03FB910BD5C0B00204C140108CC
:101C2000F0B5044687B008460E466B49154603F0EA
:101C300045F86A490746284603F040F80146384609
:101C400003F01EF82060013004D165486549642224
:101C500003F0BEF82268644B9A4214D103F558434E
:101C6000196C41F480411964196C21F480411964A4
:101C7000196E41F4804119661B6E03F48043009392
:101C8000009B002316E0594B9A4215D103F5E63329
:101C9000996B41F400319963996B21F40031996398
:101CA000996D41F4003199659B6D03F40033019304
:101CB000019B0123636047E04D4B9A4214D103F529
:101CC000E4339A6B42F480229A639A6B22F4802266
:101CD0009A639A6D42F480229A659B6D03F4802387
:101CE0000293029B022346E0424B9A4214D103F531
:101CF000E2339A6B42F400229A639A6B22F4002238
:101D00009A639A6D42F400229A659B6D03F4002356
:101D10000393039B03232EE0374B9A4214D103F520
:101D2000E0339A6B42F480129A639A6B22F4801229
:101D30009A639A6D42F480129A659B6D03F4801346
:101D40000493049B042316E02C4B9A4214D103F510
:101D5000C833DA6B42F00102DA63DA6B22F0010277
:101D6000DA63DA6D42F00102DA65DB6D03F001033C
:101D70000593059B052363603046174902F062FF17
:101D80002846164902F05EFF721C03D0304601213E
:101D9000FFF700FD6B1C03D028460121FFF7FAFC7A
:101DA0004FF41653A3600023E36023616361E36192
:101DB000268365832046FFF7F9FE22680B4B9A4283
:101DC00007D10F4B0F4801221A602146242205F04B
:101DD000E7F807B0F0BD00BF90100108C40F01087C
:101DE00064140108801401080038014000440040D8
:101DF00000480040004C004000500040008000407F
:101E0000FC0D00207C0E00208160FFF7CFBE00009B
:101E1000034B19604168034B43F82120704700BF12
:101E2000180E0020000E0020426870235343034A1E
:101E3000D358D869C0F34010704700BF5C0B002036
:101E400038B5456804462046FFF7EEFF0028FAD073
:101E50007023054AE1686B43D358988C09B9C0B226
:101E600038BDC0F3080038BD5C0B00204268702309
:101E70005343034AD358D869C0F3C010704700BF1A
:101E80005C0B002070B5466805460C462846FFF7F7
:101E9000EDFF0028FAD07023054AE9687343D35850
:101EA00009B9E4B201E0C4F308041C8570BD00BFA9
:101EB0005C0B0020DFF820D0002103E0074B5B58CB
:101EC000435004310648074B42189A42F6D302F0B9
:101ED00027FBFEF787F9704700800120C41D010829
:101EE00000000020C8080020FEE708B5032000F02D
:101EF00015F80F20FEF77AFF00F058F8002008BD13
:101F0000024A136801331360704700BFA00E00201F
:101F1000014B1868704700BFA00E0020074AD36825
:101F200023F4E0631B041B0C43F0BF6343F4003352
:101F300000F0070043EA0023D360704700ED00E0A3
:101F40004309203300F01F0004490122824041F878
:101F50002320BFF34F8FBFF36F8F704700E100E086
:101F600090F82520022A38B503D00422C26301204C
:101F700038BD0268046C1168456C836B21F00E015A
:101F80001160116821F0010111606268012101FAFC
:101F900005F52A436260002480F8251080F824406B
:101FA00013B19847204638BD184638BD7047000029
:101FB0002DE9F3470F68002337FA03F200F0CC80D5
:101FC00001259D4015EA070E00F0C4804C6824F0FE
:101FD0001006022E16D14FEAD30C00EB8C0C03F046
:101FE0000708DCF820204FEA88084FF00F0909FAAB
:101FF00008F922EA09090A6902FA08F249EA020222
:10200000CCF820204FEA430C0322D0F8009002FACB
:102010000CF2D24304F0030802EA090A013E08FA6E
:102020000CF94AEA0909012EC0F8009011D8866817
:1020300002EA0609CE6806FA0CF649EA0606866048
:10204000466826EA0509C4F300169E4049EA0606DA
:102050004660B8F1030F01BFC66A26EA0508C4F35B
:10206000C00505FA03F604BF48EA0605C562C6685E
:1020700016408A6802FA0CF546EA0502C260E200E0
:1020800068D5374A156E45F001051566126E23F0C6
:10209000030505F1804502F0010205F58035019246
:1020A00003F0030C019AAE684FEA8C0C0F2202FA7F
:1020B0000CF2B0F1904F26EA020619D0294A90425C
:1020C00018D002F58062904216D002F580629042EC
:1020D00014D002F58062904212D002F580629042E4
:1020E00010D002F5806290420CBF062207220AE05F
:1020F000002208E0012206E0022204E0032202E0BE
:10210000042200E0052202FA0CF23243AA60164AC9
:10211000156814F4803F6FEA0E060CBF35404EEA96
:1021200005051560556814F4003F0CBF35404EEAB4
:1021300005055560956814F4801F0CBF35404EEAC4
:1021400005059560D568A40254BF06EA05044EEA69
:102150000504D46001332FE702B0BDE8F08700BF6B
:1021600000100240000400480004014003689A691E
:10217000910744BF00229A629A69D2075EBF9A69AA
:1021800042F001029A61704730B50468039D6068AF
:1021900020F07F7020F4593020F47F7020F003008D
:1021A00028430343C1F309010B4343EA024262603F
:1021B00030BD0000184B30B5446B9C4201F0120258
:1021C00001F0040302D0154DAC420ED1002B01F0FA
:1021D00011010CBF0023B823112908BF43F090035D
:1021E000122A12D143F060030FE0002B0CBF002332
:1021F000B823CC0748BF43F0F203890748BF43F038
:10220000F403122A08BF43F0200301680A6813434D
:102210000B60002030BD00BF792C0008392A00086F
:1022200011F0010307D090F8413003F02803282B68
:102230000CBF4223F2238A0709D590F8412002F00F
:102240002802282A0CBF43F0440343F0F4034A0752
:1022500001F0110248BF43F0B80301F01201112A46
:1022600008BF43F09003122901680A6808BF43F0D1
:10227000600322EA03030B60002070472DE9F04160
:10228000069C05460F4690461E462B6898693840C6
:10229000C21B50425041404513D1711CF6D056B973
:1022A000202385F84130002385F8423085F84030FE
:1022B0000320BDE8F081FFF72BFE001BB042E4D9FC
:1022C000EEE70020BDE8F081704710B50446002815
:1022D00047D090F8413003F0FF021BB980F840204E
:1022E000FFF7F2FF242384F841302368E1681A687D
:1022F00022F001021A60626822F070621A619A6824
:1023000022F400429A60A26842B1012903D142F44A
:1023100000429A6007E042F404429A60022904BF36
:102320004FF400625A605A68616942F0007242F4E8
:1023300000425A6022690A43A16942EA0122DA6036
:10234000216AE2690A431A601A6842F001021A60BF
:1023500000202023606484F84130206384F8420028
:1023600010BD012010BD2DE9F04385B01D460023AE
:10237000039390F84130202B04468846174676D1C7
:1023800003689B6913F4004371D190F84020012A3F
:102390006DD0012280F84020242280F8412043643F
:1023A000E3682268012BC8F3090306BF43F00073FA
:1023B00043F4005343F420535360FFF7A9FD06464E
:1023C00023689A69910604D59A6912F0100220D107
:1023D00010E09A69D206F7D494F84120A02AF3D0ED
:1023E000681CEED0002D3AD0FFF792FD801BA8426A
:1023F000E6D934E00096204620212B46FFF73EFF29
:1024000098BB22682023D36184F8413084F84000CF
:102410002EE000220096204620212B46FFF72EFFBB
:10242000024610BB236810214FF02009D961C3F880
:102430001C900399481CB94203900DD1596841F48E
:10244000804159602046009649462B46FFF716FF0B
:1024500058B92368C3F81C90039BBB42A0D3202328
:1024600084F84130002384F84030032000E002204B
:1024700005B0BDE8F083000037B5044690F8410090
:10248000202833D194F8400001282FD0012084F86F
:102490004000212084F84100102084F842000020F0
:1024A00060646385069B626223F08073E362114B74
:1024B0006363638D9BB2FF2B8BBFFF23638D2385EB
:1024C00023854FF400508CBF4FF08073E36A94F87B
:1024D0002820009000252046FFF756FE84F8405043
:1024E00020460121FFF766FE284600E0022003B0E7
:1024F00030BD00BF592B000837B5044690F84100A5
:10250000202833D194F8400001282FD0012084F8EE
:102510004000222084F84100102084F8420000206E
:1025200060646385069B626223F08073E362114BF3
:102530006363638D9BB2FF2B8BBFFF23638D23856A
:1025400023854FF410508CBF4FF08073E36A94F8EA
:102550002820009000252046FFF716FE84F8405002
:1025600020460221FFF726FE284600E0022003B0A5
:1025700030BD00BF592B000890F84120202A08B533
:1025800009D1282280F84120044A42630421FFF740
:1025900011FE002008BD022008BD00BF89280008E8
:1025A0000268436B9169126803B11847704738B5E8
:1025B000002580F8425090F84130212B4FF0200345
:1025C000044680F841300BD1112303634563012198
:1025D000FFF726FE84F840502046FEF78FFF38BDF7
:1025E0001223036345630221FFF71AFE84F840506B
:1025F0002046FEF7A2FF38BD38B5002580F84250CE
:1026000090F84130292B04460DD1282380F8413021
:10261000212303630121FFF703FE84F84050204685
:10262000FEF7C4FF38BD90F841302A2B0CD1282387
:1026300080F84130222303630221FFF7F1FD84F883
:1026400040502046FEF7B6FF38BD0000164B10B5CF
:102650002022C36200230363436380F8412080F893
:1026600042304B07044611D5436A5A1C4262026845
:10267000526A1A70038D4BB1013B0385438D013BB8
:102680009BB24385436C43F0040343642046072117
:10269000FFF7C6FD23681022DA61002384F840307A
:1026A0002046FEF78BFF10BD0000FFFF704770470C
:1026B0000023344A10B580F84230C2624385436C2F
:1026C0001943416490F84130282B044607D090F814
:1026D0004130292B03D090F841302A2B0AD12046D3
:1026E0000321FFF79DFD282384F841300023236355
:1026F000254B0BE00721FFF793FD94F84130602B49
:102700001CBF202384F841300023236363632368C4
:102710001A6812F480411A680DD022F48042A06B2E
:102720001A601A4B8363002384F84030FFF718FCCB
:1027300038B3A06B0FE012F4004210D01A68E06BBF
:1027400022F400421A60114B836384F84010FFF7B3
:1027500007FCB0B1E06B836BBDE81040184794F8FC
:102760004130602B08D1202384F8413084F8402088
:102770002046FEF725FF10BD84F840202046FEF7D6
:10278000F3FE10BD0000FFFF89280008A32D0008FC
:1027900038B5036820220446DA610822DA610D4662
:1027A0000721FFF73DFD23685A6842F400425A6052
:1027B0005968334A0A405A602046FFF7D7FC22681E
:1027C0001368580402D41368190409D594F84130E9
:1027D000212B0CBFA36BE36B1B685B689BB263850B
:1027E000638D9BB21BB1636C43F0040363646B079E
:1027F00010D5636A526A591C61621A70238D4BB1FD
:10280000013B2385638D013B9BB26385636C43F081
:10281000040363640023236384F842306363636CBE
:102820006BB1616C2046FFF743FF94F84130282BD1
:1028300024D120462946BDE83840FFF707BFE26AA9
:1028400012F5803F0AD00F4AE262202284F841202C
:1028500084F840302046FEF7B1FE38BD94F84120A0
:1028600084F84030222A4FF0200284F8412020468C
:1028700002D1FEF79FFE38BDFEF798FE38BD00BFBF
:1028800000E800FE0000FFFF2DE9F84390F840301B
:10289000012B04460E46174600F0CB800123CD06DF
:1028A00080F840302FD5D0062DD5638D9BB213BB59
:1028B000E36AB3F1007F03D0E36AB3F1007F08D18C
:1028C00094F84130282B04D120463146FFF7BEFE54
:1028D000A2E0E36A13F5803F236809D094F8412011
:1028E000292A05D11022DA612046FFF73FFC26E0B5
:1028F0001022DA6190E023681022DA61636C43F001
:102900000403636488E071071DD57A071BD5638DC6
:102910009BB263B1636A5A1C62622268526A1A707F
:10292000238D013B2385638D013B9BB26385638DC2
:102930009BB2002B70D1E36A13F5803F6CD0204628
:10294000FFF75AFE68E033074AD53D0748D594F8AB
:10295000413003F02803282B23683BD19A69E168B2
:102960009D69022905F47E05C2F300484FEA15452A
:102970009A68D3F80C9020D1C2F3090285EAD215E7
:1029800015F006050DD1A16C0131A164A16C0229DD
:1029900042D10821A5642046D96184F840504146BF
:1029A00015E004212046FFF73BFC002384F840306B
:1029B0002046414609F0FE0209E004212046FFF7C7
:1029C0002FFC002384F84030204641462A46FEF77B
:1029D000E3FD21E00822DA61002384F840301BE0A7
:1029E000B00719D5B90717D5638D9BB26BB1636A70
:1029F0002268591C61621B789362638D013B9BB214
:102A00006385238D013B238506E0E36AB3F1807F74
:102A100095D0E36A002B92D0B20605D5BB0603D54C
:102A200020463146FFF7B4FE002084F84000BDE8A0
:102A3000F8830220BDE8F88390F84030012B10B5F0
:102A400004462DD0012380F84030C80615D5D306A2
:102A500013D594F841302268212B0CBFA36BE36B94
:102A60001B6810215B68B3FA83F35B09D1619BB9E2
:102A7000636C43F0040363640EE0080705D5130795
:102A800003D523680822DA6106E0880604D5930698
:102A900002D52046FFF77CFE002084F8400010BDE0
:102AA000022010BD0368202210B5DA610446294ACD
:102AB000586802405A60002222636263A2F58032A5
:102AC000E262CA0641BF1022DA61636C43F004037C
:102AD00048BF63642046FFF749FB20460321FFF708
:102AE0009FFB636C1BB994F84120602A05D1616C8F
:102AF0002046BDE81040FFF7DBBD94F84120212AB5
:102B000011D1202284F8412094F8422084F84030EA
:102B1000402A84F84230204602D1FFF7C7FD10BD9D
:102B2000FEF7ECFC10BD94F84120222A10D120229F
:102B300084F8412094F8422084F84030402A84F8F8
:102B40004230204602D1FFF7B2FD10BDFEF7F5FC82
:102B500010BD00BF00E800FE90F84030012B73B5B7
:102B600004460D46164600F084800123CA0680F80C
:102B700040300BD5F30609D503681022DA61436CA7
:102B800043F004034364FFF7F1FA66E0680708D5F1
:102B9000710706D5636A5A1C62622268526A1A700B
:102BA00009E0AA070FD5B3070DD5636A2268591C3F
:102BB00061621B789362238D013B2385638D013B0A
:102BC0009BB2638549E028062FD571062DD5208D4F
:102BD000226818BB638D9BB203B35168638D9BB2AF
:102BE000FF2BC1F3090106D9FF2200902285204660
:102BF0004FF080730AE0628DE36A92B213F5803F72
:102C00002285D2B205D0E36A00902046FFF7BCFAD5
:102C100023E000904FF000732046F7E753689A01D5
:102C20000AD42046FFF7C3FC17E06B0615D57006E3
:102C300013D5638D9BB223B120464021FFF738FDA9
:102C40000BE023685A68910107D4E26A12F5803FCD
:102C5000E7D15A6842F480425A60AA0605D5B30605
:102C600003D520462946FFF71DFF002084F84000C9
:102C700000E0022002B070BD90F84030012B13B587
:102C8000044659D0012380F84030CB060FD5D30637
:102C90000DD503681022DA61436C43F004034364EA
:102CA0001221FFF787FA2046FFF760FA40E0080696
:102CB00037D5530635D523681A6822F040021A60CA
:102CC000628D92B242B35968638D9BB2FF2B8BBF6A
:102CD000FF23638D238523854FF000008CBF4FF0C9
:102CE00080734FF0007394F828200090C1F309011D
:102CF0002046FFF749FA638D228D9B1A9BB26385AC
:102D000094F84130222B23681A680CBF42F4004229
:102D100042F480421A600BE020464021FFF7C8FCD5
:102D200006E0880604D5930602D52046FFF7BAFED2
:102D3000002084F8400000E0022002B010BD0368CB
:102D400099691A6810B5CC0509D5140641BF446CC1
:102D500044F0010444644FF4807448BFDC614C05C6
:102D600009D5140641BF446C44F0080444644FF490
:102D7000806448BFDC61890509D5120641BF426CF9
:102D800042F0020242644FF4007248BFDA61436CC1
:102D900013F00B0F04D0416CBDE81040FFF788BC66
:102DA00010BD806A026808B5536843F4004353605D
:102DB000826B00239363C26B936390F84130602B66
:102DC00005D1202380F84130FEF7FAFB08BDFEF75D
:102DD000CBFB08BD90F84120D2B2202A10B51DD1FE
:102DE00090F84030012B19D0242380F8413003683B
:102DF0001C6824F001041C601C6824F480541C60CE
:102E00001C6821431960196841F001011960002311
:102E100080F8412080F84030184610BD022010BDD7
:102E2000084B1A6E42F001021A661B6E064A82B007
:102E300003F001030193019B53681843506002B0F3
:102E4000704700BF0010024000000140024B1868AC
:102E500000F4C060704700BF0070004037B51E4DE1
:102E6000AB6DD900044602D5FFF7F0FF0EE0AB6D65
:102E700043F08053AB65AB6D03F080530193019B2E
:102E8000FFF7E4FFAB6D23F08053AB65B0F5007F37
:102E900006D1802C0CD9A02C8CBF022301230CE07E
:102EA000802C07D808D0A4F170025342534104E0AB
:102EB000002302E0032300E0022308490A6822F00D
:102EC00007021A430A60086800F00700C01A18BF1A
:102ED000012003B030BD00BF0010024000200240BE
:102EE000F0B5494CA36813F00C0F09D0A36803F0A8
:102EF0000C030C2B26D1E36803F00303012B21D133
:102F00002268414B12070AD4D3F894304FF4706210
:102F100092FAA2F2B2FA82F203F4706307E01B683D
:102F2000F02292FAA2F203F0F003B2FA82F2D34056
:102F3000364A52F82360A36813F00C0F0CBF3046DA
:102F4000002011E0A36803F00C03042B07D02E4BE4
:102F50009B6803F00C03082B04D12D4800E02D489A
:102F6000002601E000200646A368274F03F00C036B
:102F70000C2B47D1F968FA68702393FAA3F302F097
:102F80007002B3FA83F3DA4001F00303022B02F17B
:102F900001054FF4FE410DD0032B19D1F86891FAC9
:102FA000A1F100F4FE40B1FA81F1194AB2FBF5F249
:102FB000C8400AE0F86891FAA1F100F4FE40B1FAC5
:102FC00081F1C8401349B1FBF5F202FB00F30BE0BD
:102FD000FA6891FAA1F102F4FE43B1FA81F123FA01
:102FE00001F2B6FBF5F35343E0684FF0C06292FA8A
:102FF000A2F200F0C060B2FA82F2D040013040008C
:10300000B3FBF0F0F0BD00BF001002403415010822
:1030100000127A000024F4000368F7B5DD060446C8
:1030200040F190809D4DAB6813F00C0F54D12B688C
:10303000980703D5A3690BB901202DE22A68974BA5
:10304000206A110755BFD3F894301B6803F47063EE
:1030500003F0F00358BF1B09984215D9FFF7FEFE95
:103060000028E9D12B6843F008032B602B6823F07C
:10307000F002236A13432B606B68E26923F47F43F9
:1030800043EA02236B6013E02B6843F008032B60D4
:103090002B6823F0F00303432B606B68E26923F491
:1030A0007F4343EA02236B60FFF7D8FE0028C3D1B9
:1030B000FFF716FFAB68F02292FAA2F203F0F003DA
:1030C000B2FA82F2D340764AD35CD840754B18608E
:1030D0000F20FDF78BFE35E083691BB32B6843F0AF
:1030E00001032B60FEF714FF06462A686B4B92071C
:1030F00006D4FEF70DFF801B0228F6D90320CBE192
:103100001A6842F008021A601A6822F0F001226A76
:103110000A431A605A68E16922F47F4242EA0122B6
:103120005A600FE02B6823F001032B60FEF7F0FEDE
:1031300006462B689F0705D5FEF7EAFE801B02288E
:10314000F7D9DBE72368DE0703D423689D0748D45B
:103150009DE0524DAB6803F00C03082B09D0AB681F
:1031600003F00C030C2B0BD1EB6803F00303032BD0
:1031700006D12B689803E8D56368002BE5D15BE79F
:103180006368B3F5803F06D0B3F5A02F08D12B6854
:1031900043F480232B602B6843F480332B6008E0DA
:1031A0002A6822F480322A602A6822F480222A6067
:1031B0005BB1FEF7ADFE06462B689903C5D4FEF75A
:1031C000A7FE801BC828F7D998E7FEF7A1FE0646A0
:1031D0002B689A03B9D5FEF79BFE801BC828F7D948
:1031E0008CE72E4DAB6803F00C03042B09D0AB68C1
:1031F00003F00C030C2B19D1EB6803F00303022B33
:1032000014D12B685B0503D5E368002B3FF414AFA2
:103210006A684FF0F85191FAA1F12369B1FA81F18E
:1032200022F0F8528B4013436B6030E0E368F3B157
:103230002B6843F480732B60FEF76AFE06462B680A
:1032400016485F0505D4FEF763FE801B0228F6D9F9
:1032500054E742684FF0F85191FAA1F12369B1FAAD
:1032600081F122F0F8528B40134343600FE02B684A
:1032700023F480732B60FEF74BFE06462B6858053F
:1032800005D5FEF745FE801B0228F7D936E72368EF
:10329000190709D423685A072FD498E00010024078
:1032A0001C1501080800002063697C4D93B1D5F816
:1032B000943043F00103C5F89430FEF729FE06462A
:1032C000D5F894309B07E5D4FEF722FE801B022838
:1032D000F6D913E7D5F8943023F00103C5F89430FC
:1032E000FEF716FE0646D5F894309F07D2D5FEF7B6
:1032F0000FFE801B0228F6D900E7684DAB6DDE009B
:103300005FBFAB6D43F08053AB65AB6D5EBF03F049
:1033100080530193019B624B1A6854BF012600261B
:10332000D00503D5A368012B11D118E01A6842F427
:1033300080721A60FEF7ECFD0746594B1B68D905F1
:10334000F0D4FEF7E5FDC01B0228F6D9D6E6052B22
:103350000CD1D5F8903043F00403C5F89030D5F87F
:10336000903043F00103C5F890300CE0D5F8902080
:1033700022F00102C5F89020D5F8902022F0040236
:10338000C5F8902073B1FEF7C3FD0746D5F890301D
:103390009A070ED4FEF7BCFD41F28833C01B984259
:1033A000F4D9ABE6FEF7B4FD0746D5F890309B079D
:1033B00005D466B1AB6D23F08053AB6507E0FEF733
:1033C000A7FD41F28833C01B9842EED996E6A26A67
:1033D0000AB9002060E0314DAB6803F00C030C2B00
:1033E0003FF42AAE2B68022A23F080732B6037D17A
:1033F000FEF78EFD06462B6828489F0105D5FEF78F
:1034000087FD801B0228F6D978E6616BE36AA26B20
:1034100043EA0123216B013943EA0113120943EA0C
:103420004241E36B5B08013B41EA4352236C5B087A
:10343000013B42EA4363C360036843F08073036067
:10344000C36843F08073C360FEF762FD04462B68D7
:103450009801BED4FEF75CFD001B0228F7D94DE6AB
:103460002B68190106D42B689A005EBFEB6823F025
:103470000303EB60EB6823F0887323F48033EB6085
:10348000FEF746FD04462B689B01A2D5FEF740FDE2
:10349000001B0228F7D931E603B0F0BD001002404E
:1034A00000700040594AF8B5136803F007039942C9
:1034B00005460E460AD82968880713D554488368FC
:1034C00023F0F002AB68134383600BE0136823F032
:1034D00007030B431360136803F007038B42EAD022
:1034E0000120F8BDCA0706D4484A136803F0070351
:1034F0009E4256D35FE06B68454C022B226802D196
:1035000012F4003F0AE0032B02D112F0007F05E025
:1035100013B912F0020F01E012F4806FE0D0A2683C
:1035200022F003021343A360FEF7F2FC6B68022B48
:1035300007460DD1A36803F00C03082BD4D0FEF787
:10354000E7FC41F28833C01B9842F3D90320F8BD51
:10355000032B0CD1A36803F00C030C2BC4D0FEF793
:10356000D7FC41F28833C01B9842F3D9EEE793B9F8
:10357000A36813F00C0FB7D0FEF7CAFC41F28833F2
:10358000C01B9842F4D9E1E7FEF7C2FC41F2883350
:10359000C01B9842DAD8A36803F00C03042BF3D1C4
:1035A000A2E7136823F0070333431360136803F0A3
:1035B0000703B34294D12968154C11F0040F05D0CC
:1035C000A36823F4E062EB681343A3600B0741BFD9
:1035D000A3682A6923F4605343EAC20348BFA36087
:1035E000FFF77EFCA368F02292FAA2F203F0F00348
:1035F000B2FA82F2D340074AD35CD840064B186037
:103600000F20FDF7F3FB0020F8BD00BF00200240B3
:10361000001002401C15010808000020084B4FF460
:10362000E0629B6892FAA2F203F4E063B2FA82F2DB
:10363000D340044AD35C044A1068D840704700BFA6
:10364000001002402C15010808000020084B4FF420
:1036500060529B6892FAA2F203F46053B2FA82F2CB
:10366000D340044AD35C044A1068D840704700BF76
:10367000001002402C150108080000200F230360F1
:103680000B4B9A6802F0030242609A6802F0F00263
:1036900082609A6802F4E062C2609B6803F460533F
:1036A000DB080361034B1B6803F007030B607047E3
:1036B0000010024000200240F8B5594BDA6812F0C1
:1036C000030F04460E461D46006813D0DA6802F068
:1036D0000302824224D11AB3DB68702292FAA2F26A
:1036E00003F07003B2FA82F2D3406268013393426E
:1036F00016D125E0022808D003280AD001280FD1CE
:103700001B689F0740F18B800CE01B6813F4806FEF
:1037100005E01A68910305D41B6813F4802F01D1CA
:103720000120F8BDEB68702292FAA2F223F0730335
:1037300018436368B2FA82F2013B93401843E86091
:103740002B6823F080632B60FEF7E2FB07462B68B3
:1037500033491A0106D5FEF7DBFBC01B0228F6D958
:103760000320F8BD4FF4FE43A268B6B9086993FA86
:10377000A3F34FF40037B3FA83F397FAA7F7E66899
:10378000B7FA87F736099A40BE4020F41F33324318
:1037900023F4407313430B612BE0012E086912D10F
:1037A00093FAA3F3B3FA83F34FF4C00696FAA6F69E
:1037B0009A402369B6FA86F65B08013BB3401A4388
:1037C00020F4C00311E093FAA3F34FF0C066B3FAFC
:1037D00083F396FAA6F69A406369B6FA86F65B0812
:1037E000013BB3401A4320F0C06323F4FE431A4365
:1037F0000A612B6843F080632B60FEF789FB064665
:103800002B68074A1B0105D4FEF782FB801B0228A8
:10381000F6D9A5E71169A3690B4313610020F8BD30
:1038200000100240F8B54F4BDA6812F0030F04465F
:103830000E461D46006813D0DA6802F00302824289
:1038400023D112B3DB68702292FAA2F203F0700364
:10385000B2FA82F2D34062680133934215D124E078
:10386000022807D0032809D001280ED11B689B0726
:1038700076D50CE01B6813F4806F05E01A68970397
:1038800005D41B6813F4802F01D10120F8BDEB682B
:10389000702292FAA2F223F0730318436368B2FA1B
:1038A00082F2013B93401843E8602B6823F0805379
:1038B0002B60FEF72DFB07462B682A4A990006D598
:1038C000FEF726FBC01B0228F6D90320F8BD4FF4F3
:1038D000FE43A768BEB9506993FAA3F34FF4003EC4
:1038E000B3FA83F39EFAAEFEE668BEFA8EFE3609A0
:1038F0009F4006FA0EF620F41F313E4321F440713A
:103900003143516116E0516993FAA3F34FF0C0605F
:10391000B3FA83F390FAA0F09F402369B0FA80F0E5
:103920005B08013B834021F0C0613B4321F4FE4131
:103930000B4353612B6843F080532B60FEF7E8FA8A
:1039400006462B68074A9B0005D4FEF7E1FA801B68
:103950000228F6D9B9E7516963690B435361002026
:10396000F8BD00BF001002402DE9F743066816F4C9
:103970000066044628D0416EB1F5800F12D004D8FD
:1039800009BB0430FFF798FE10E0B1F5000F03D03B
:10399000B1F5400F0CD016E0A14AD36843F4803350
:1039A000D36005E020300021FFF73CFF064658B900
:1039B0009B49D1F8883023F44002636E1343C1F869
:1039C0008830002600E001262368D8042AD5A16E9D
:1039D000B1F1807F12D004D819BB201DFFF76CFE17
:1039E00011E0B1F1007F03D0B1F1407F0DD018E0BC
:1039F0008B4AD36843F48033D36006E004F120009F
:103A00000021FFF70FFF054600E0354665B9844900
:103A1000D1F8883023F04072A36E1343C1F8883088
:103A200003E00126354600E02E46236899035ED563
:103A30007B4FBB6DDA0058BFBB6D7A4A5FBF43F066
:103A40008053BB65BB6D03F080535CBF0193019B4A
:103A5000136843F48073136054BF4FF001084FF0B4
:103A60000008FEF755FA81466E4B1B68DB0506D44D
:103A7000FEF74EFAC9EB00000228F5D92EE075BB1F
:103A8000D7F89030664A13F4407315D0D4F88410F8
:103A90008B4211D0D2F89030D2F8901041F480319E
:103AA000C2F89010D2F8901023F4407321F48031C2
:103AB000C2F89010C2F89030D80740F13481FEF778
:103AC00027FA0546D7F89030990700F12C81FEF7C8
:103AD0001FFA41F28833401B9842F3D90325B8F10D
:103AE000000F05D0BB6D23F08053BB6500E0354669
:103AF0002368DA0741BF4A48D0F8882022F0030142
:103B0000A26B44BF0A43C0F888209F0741BF4448C6
:103B1000D0F8882022F00C01E26B44BF0A43C0F8C1
:103B200088205E0741BF3E48D0F8882022F030014F
:103B3000226C44BF0A43C0F88820180741BF3848A8
:103B4000D0F8882022F0C001626C44BF0A43C0F85C
:103B50008820D90641BF3248D0F8882022F440712D
:103B6000A26C44BF0A43C0F888209A0641BF2C4883
:103B7000D0F8882022F44061E26C44BF0A43C0F8C8
:103B800088209F0541BF2648D0F8882022F4402194
:103B9000E26D44BF0A43C0F888205E0541BF20485B
:103BA000D0F8882022F44011226E44BF0A43C0F8A6
:103BB0008820580641BF1A48D0F8882022F4405186
:103BC000226D44BF0A43C0F88820190641BF14483B
:103BD000D0F8882022F44041626D44BF0A43C0F807
:103BE0008820DA0541BF0E48D0F8882022F4403101
:103BF000A26D44BF0A43C0F888209F041ED5084A1E
:103C0000E16ED2F8883023F040630B43B1F1006FCE
:103C1000C2F8883008D1D36843F48013D3600DE034
:103C20000010024000700040B1F1806F06D1201DED
:103C30000121FFF741FD002818BF054623681E0338
:103C40001AD5404A216FD2F8883023F040630B43E5
:103C5000B1F1006FC2F8883004D1D36843F4801307
:103C6000D36009E0B1F1806F06D1201D0121FFF77B
:103C700023FD002818BF0546236858031AD5314A8A
:103C8000616FD2F8883023F040630B43B1F1006FCD
:103C9000C2F8883004D1D36843F48013D36009E0BC
:103CA000B1F1806F06D1201D0121FFF705FD00282D
:103CB00018BF0546236859041BD52249A26FD1F8C5
:103CC000883023F040531343B2F1805FC1F888304D
:103CD00004D1201D0221FFF7EFFC07E0B2F1005FE5
:103CE00007D104F120000221FFF79CFD002818BF36
:103CF000054621680A0441BF1248D0F8883023F0F5
:103D00008042E36F44BF1343C0F88830CB0315D51E
:103D10000C49D1F8883023F00042D4F880301343A6
:103D2000C1F888300AE0D7F8903023F44072D4F814
:103D300084301343C7F890303546D0E6284603B0A8
:103D4000BDE8F08300100240054BD3F8902022F02C
:103D50002002C3F890209A6922F400729A61704799
:103D600000100240024A136843F0040313607047D6
:103D700000100240704700002E4A0368904212D0A3
:103D8000B0F1804F0FD0A2F5943290420BD002F5E3
:103D90008062904207D002F58062904203D002F523
:103DA0009432904219D14A6823F070031343214A98
:103DB00090421DD0B0F1804F1AD0A2F594329042BB
:103DC00016D002F58062904212D002F580629042D5
:103DD0000ED002F5943290420AD0174A904207D092
:103DE00002F58062904203D002F58062904203D1D6
:103DF000CA6823F44073134303608B68C3620B6883
:103E000083620C4B98420FD003F5006398420BD0AD
:103E100003F54063984207D003F58063984203D0CE
:103E200003F58063984201D10B6903630123436169
:103E3000704700BF002C01400040014010B504460F
:103E4000A0B190F8393003F0FF021BB980F8382098
:103E5000FFF790FF022384F839302068211DFFF717
:103E60008BFF012384F83930002010BD012010BDE4
:103E700010B50123046A8B4024EA03030362036A3A
:103E80008A401343036210BD10B504460122006846
:103E9000FFF7EEFF23680E4A93420FD002F500624F
:103EA00093420BD002F54062934207D002F5806244
:103EB000934203D002F58062934203D15A6C42F4DC
:103EC00000425A641A6842F001021A60002010BDD4
:103ED000002C014070470000F8B504460568A26850
:103EE0002169C3692868114362690A4342EA0301F0
:103EF000A84A02400A432A606A6822F44051E268F4
:103F00000A436A60A44AA16995421CBF226A114310
:103F1000AA6822F430620A43AA60A04A954207D1F7
:103F200002F558429E49D2F8882002F0030209E0C7
:103F30009C4A95420CD102F5E6329B49D2F8882082
:103F400002F00C02B3F5004F8A5C40F09C8054E014
:103F5000964A954210D102F5E432D2F8882002F058
:103F60003002102A65D002D8002A4FD07DE0202AE6
:103F700055D0302A69D078E08D4A95420ED102F5AD
:103F8000E232D2F8882002F0C002402A00F0AF806E
:103F900027D9802A00F0F480C02A2BE0854A954278
:103FA00011D102F5E032D2F8882002F44072B2F565
:103FB000807F00F09C8014D9B2F5007F00F0E08093
:103FC000B2F5407F16E0744A95424ED102F5C832F0
:103FD000D2F8882002F44062B2F5806F00F087804A
:103FE00002D8002A7CD03CE0B2F5006F00F0C88017
:103FF000B2F5406F00F0BC8033E0082A39D8DFE822
:1040000002F0080B11381B3838382700B3F5004F81
:1040100043D1FFF703FB11E0FFF718FB0EE0B3F508
:10402000004F40D16068420802F1F47303F59043F9
:1040300012E0B3F5004F3FD1FEF752FF63685A0814
:1040400002EB4000B0FBF3F308E0B3F5004F3DD1C5
:104050006068430803F58033B3FBF0F39BB20022A2
:1040600009E04D4A954200F09280B3F5004F40F0D0
:104070008E800122002323F00F002168C3F3420346
:104080000343CB6084E0082A00F28180DFE802F07D
:1040900005080B7F147F7F7F1E00FFF7BFFA0DE03E
:1040A000FFF7D4FA0AE061684A0802F5740303F5E1
:1040B0001053B3FBF1F30FE0FEF712FF636800EB60
:1040C0005300B0FBF3F080B2E86007E06268530889
:1040D00003F50043B3FBF2F39BB2EB60002257E021
:1040E0002D4A954292D1FFF799FA002305E02A4A1A
:1040F00095429ED1FEF7F4FE04230028EED06268BC
:1041000002EB4201884242D3B0EB023F3FD8082B7A
:1041100025D8DFE803F0052408240D242424190001
:10412000FFF77CFA06E0244853080021C0180FE08E
:10413000FEF7D6FE6268002756084FF48073E3FB53
:1041400000673046394605E05008002110F50000B0
:1041500041F1000100230BF0DFFC002200E001220E
:10416000164BA0F54071994211D82368D8600FE032
:10417000094A95427FF469AF08234FF40040BEE737
:10418000054A95427FF44BAF02230D48B7E7012261
:104190001046F8BDF369FFEF008000400038014091
:1041A0000B150108004400400F15010800480040AD
:1041B000004C004000500040000024F4FFFC0F00C1
:1041C0000024F400436ADA0710B541BF046862684E
:1041D00022F40031826A44BF0A4362609C0741BFF7
:1041E0000468626822F48031C26A44BF0A43626094
:1041F000590741BF0468626822F48021026B44BF02
:104200000A4362601A0741BF0468626822F40041F1
:10421000426B44BF0A436260DC0641BF0468A26887
:1042200022F48051826B44BF0A43A260990641BFC9
:104230000468A26822F40051C26B44BF0A43A26022
:104240005A0610D50168046C4A6822F48012224391
:10425000B4F5801F4A6001BF4A6822F4C004426C72
:10426000224308BF4A601B0641BF01684B6823F424
:104270000022836C44BF13434B6010BD2DE9F04115
:10428000069D04460E46174698462268D06930407F
:10429000831B58425841B8421DD1691CF6D09DB9C4
:1042A00023681A6822F4D0721A609A6822F0010218
:1042B0009A60202384F8693084F86A30002384F8F7
:1042C00068300320BDE8F081FDF722FEC8EB000056
:1042D000A842DAD9E4E70020BDE8F08173B50446CE
:1042E0000026C666FDF714FE23681B681A070546FC
:1042F00004D423681B685B071AD50DE06FF07E437A
:10430000009320464FF4001132462B46FFF7B6FFCC
:104310000028EED0032013E06FF07E430093204688
:104320004FF4800100222B46FFF7A8FF0028F1D1AF
:104330002023002084F8693084F8680084F86A300B
:1043400002B070BD10B5044660B390F8693003F058
:10435000FF021BB980F86820FFF7BCFD2268242308
:1043600084F86930136823F0010313602046FFF7D7
:10437000B3FD012816D0636A13B12046FFF722FF70
:1043800023685A6822F490425A609A6822F02A02FE
:104390009A601A6842F0010220461A60BDE8104097
:1043A000FFF79CBF012010BD264B27491A68120752
:1043B00054BFD3F894201A68986854BFC2F30322FC
:1043C000C2F3031200F00C0010B551F822401F494F
:1043D0000C282DD8DFE800F02C2C2C2C072C2C2CB2
:1043E000092C2C2C0B001A4A20E01A4A1EE0D8682F
:1043F000DA6800F00300C2F30212022802F101029F
:1044000003D0032805D1134800E01148B0FBF2F2B5
:1044100001E0B4FBF2F2D868DC68C0F30620424346
:10442000C4F3416001304000B2FBF0F20A6000E0EA
:104430000C609B68084AC3F30313D25C0B68D3403B
:104440000B6010BD00100240341501080800002068
:104450000024F40000127A001C15010870B5B8B0F1
:1044600000211422684602F099FE0021442205A88A
:1044700002F094FE16A80021882202F08FFE042389
:10448000059305A801230793FEF7C6FD20B9204A2E
:10449000136843F004031360FFF756FC13230593DE
:1044A00001230B9310930623B02211932823002499
:1044B0000D92129302220723042505A8069408945E
:1044C0000C940F92139314951595FEF7A5FD0646CF
:1044D000D8B9FFF747FC4FF40053169316A84FF0D6
:1044E00040633193FFF740FA0F2203238DE80C005D
:1044F00068464FF480632946029603960493FEF7BC
:10450000D1FFB0FA80F0400900E0204638B070BD1D
:104510000010024008B5FFF7A1FF00B9FEE708BD93
:10452000174AD2F8883010B543F47003154CC2F81E
:1045300088302368002143F001032360A1602368D1
:1045400023F0A85323F4102323604FF48053E36037
:10455000236823F4802323604FF00063A1619360FC
:10456000094B0A4A1A60FDF7C0FCFFF7D3FFA36BA3
:1045700043F00803A363A36B23F00803A36310BDF8
:1045800000ED00E0001002400800002000093D009E
:10459000054B186830B901221A60044B044A1A60AE
:1045A000FCF724BC704700BF1C0E0020A40E0020A6
:1045B000000C004008B5044B1B680BB9FFF7E8FF7F
:1045C000024B586A08BD00BF1C0E0020000C0040C2
:1045D000044B054A13605863DA6842F00202DA605D
:1045E000704700BF000C0040A40E0020034B044A9B
:1045F0001360DA6822F00202DA607047000C0040B3
:10460000A40E0020034A044B13606FF002021A61EB
:10461000704700BFA40E0020000C004010B500231E
:10462000036043600A782F2A044613D14A788AB17E
:10463000481C2060194623681A782F2A02D10133BA
:10464000236004E01AB1013301312360F3E700F085
:1046500097FC6060204610BD00687047406808B550
:1046600020B100F040FC431E5842584108BD10B52F
:104670000446FFF7F3FF00B1606810BD406808B55D
:1046800020B100F030FCB0FA80F0400908BD10B550
:104690000446FFF7F3FF10B1606800B1043810BDA5
:1046A0004068003018BF0120704710B580B1146811
:1046B00053680CB9DA070BD513F0010F4FEA630307
:1046C0001CBFC258145918442346BDE8104018476F
:1046D00010BD0000F7B51A4B036000230F4600938E
:1046E000019302A903610446164600F1180211E97C
:1046F000030082E803001349216248F20701616266
:10470000E362A4622263104A6263BFF36F8FBFF358
:104710004F8F04F13C0584F838301946284698221A
:1047200002F03CFD094BC4F8D430284639463246E5
:10473000FCF750FD064B20461C6003B0F0BD00BFE7
:104740007015010801A090E8AB460008A0860100A2
:10475000200E0020036870B504460D461B6898477C
:1047600004F13C00C4F8D4502946FCF779FC044B12
:104770001C60236820465B68BDE87040184700BF96
:10478000200E0020036870B5094D1B680446984749
:104790002B68A34206D004F13C00D4F8D410FCF7F7
:1047A0005FFC2C60236820465B68BDE870401847BA
:1047B000200E0020F7B51D46036804461B680F460F
:1047C000164698472046FFF7DDFF9DF8203083F01E
:1047D00001033246009339462B4604F13C00FCF7B6
:1047E00025FE236806465B6820469847A81B18BF2D
:1047F000012003B0F0BDF7B51D46036804461B68F1
:104800000F46164698472046FFF7BCFF9DF820301C
:1048100083F001033246009339462B4604F13C00F5
:10482000FCF79CFD236806465B6820469847A81B5A
:1048300018BF012003B0F0BDC36810B504460BB12A
:104840009B689847204610BD10B5044B044640F8BD
:10485000043BFFF7F1FF204610BD00BF70150108B3
:1048600010B50446FFF7F0FF2046FDF7EBF82046B1
:1048700010BD000008B50248FDF7E8F808BD00BF0C
:10488000240E002008B50248FDF7E0F808BD00BF7F
:10489000240E00207047A0F14C00FFF7FBBF7047CB
:1048A000A0F14C00FFF7FBBF00F0DEB8A0F14C0018
:1048B000FFF7FABF00F0DBB8A0F14C00FFF7FABF3A
:1048C00038B504461D46049B00F0D8F804F14C00AE
:1048D000294600F049F8054B03F10802226003F174
:1048E00028026433E2642365204638BD8015010840
:1048F00000207047F8B503685B6A0E4604468F18BF
:1049000098473546BD4208D0236815F8011BDB6A7D
:10491000204698470130F5D12F46236820469B6AF0
:104920009847B81BF8BDF8B503685B6A0E460446A5
:104930008F1898473546BD4208D0236820461B6B28
:104940009847431C02D005F8010BF4E72368204682
:104950009B6A9847A81BF8BD00207047002070474D
:1049600000207047002070471FB5044600F028FB68
:104970000B4B0C4903F1080244336360002363616D
:10498000226001A8224602F0ADFD074901A801F00E
:10499000ABFE6061FDF73CF8204604B010BD00BFDF
:1049A000F01501080B1401083C16010810B5074B5F
:1049B00003F108024433044602604360406901F099
:1049C00091FC204600F010FB204610BDF0150108B8
:1049D00038B5036804465B6A0D469847606901F084
:1049E00049FD6169284601F087FE236805469B6AF8
:1049F00020469847284638BD0EB477B5036807AD02
:104A0000044655F8046B5B6A98476069019501F0AC
:104A100031FD3146019A606906F08EFB2368054638
:104A20009B6A20469847284603B0BDE8704003B013
:104A3000704770477047704770B50901441801F11D
:104A40002805636B05442BB90548064940F2E71277
:104A500000F0BEF9636B28461B68BDE8704018473C
:104A60003F160108441601080430FDF7E9B910B5F6
:104A700004300C46FDF706FA204610BD2DE9F84338
:104A8000054699461A4B45F8043B044688461746A6
:104A900028462422002102F081FB04F1280600228E
:104AA00062636264C4F848903046FBF77FFF1EB132
:104AB000104BA362104B636304F138063046FBF7DA
:104AC00075FF1EB10B4BA3630B4B63643A4628463C
:104AD0004146FDF7A5F82846A16CFDF795F9284653
:104AE00006492246FDF794F92046BDE8F88300BF49
:104AF00098160108334A0008D80C0108394A000802
:104B00004368416970B50446194400F053F8636A7C
:104B100004F118052BB90648064940F2E71200F0E7
:104B200057F9636A28461B68BDE87040184700BF04
:104B30003F1601084416010838B505460C4600F03A
:104B400061F9284600F03CF86C61286900F033F9FF
:104B50000119284600F02EF8BDE8384000F07CB975
:104B600038B5044604F1180500F04CF9204600F071
:104B700027F82846FBF71AFF0DB100236362BDE852
:104B8000384000F069B903689B681847074B10B5B7
:104B90000360002343608360C360044600F00EF9A5
:104BA0000349206100F09AF8204610BDC81601089C
:104BB000874B000803460A460069191D00F0BBB880
:104BC00001460431006900F0D7B8000010B5034B6E
:104BD00003600446FFF7F4FF204610BDC816010825
:104BE00038B5B0F90030013304460D4604D106480B
:104BF0000649352200F0ECF863680DB1E26800E088
:104C00002269136038BD00BFE40C0108D416010806
:104C100070B50E4604461546FCF784F801360DD0F3
:104C200020462946FFF7DCFF20460121FCF796F8D5
:104C300020460021BDE87040FCF78CB870BD002212
:104C4000FFF7E6BF10B50446013001D110BD0C31AD
:104C5000B1F900305A1C0BD0A342F8D12046896824
:104C6000FCF76AFD20460021BDE81040FCF792BD2C
:104C70000248BDE8104000F00DB900BF451701081B
:104C8000884208B50AD0431C07D0013106D0044839
:104C900000F000F94FF0FF3008BD084608BD00BF26
:104CA00056170108B1F900305A1C05D0834201D1D2
:104CB000486870470C31F5E718467047421C10B53C
:104CC000044607D0FFF7EEFF431C044602D102481A
:104CD00000F0E0F8204610BD6717010838B50368FA
:104CE00004461B680D46984763681D6038BD03681D
:104CF00070B5DB680446984763685A6823681AB938
:104D00009B68BDE8704018475B6815689847281A8B
:104D10000028636808DC5A68916859601B68002B9A
:104D2000EAD050689847E7E721685A680B6910682D
:104D3000BDE870401847F8B507460D461C461646B4
:104D400000F060F879686C604C682E60002334B124
:104D50002268B21A002A02DB2346A468F7E72BB9BF
:104D60003B684D601B693046984700E09D60AC6031
:104D7000BDE8F84000F070B838B505460C4600F0C4
:104D800041F86A685368A3420BD19B6853602A6854
:104D900013B9936898470AE012691868904706E0CB
:104DA000134623B19A68A242FAD1A2689A60BDE87C
:104DB000384000F051B803685B68184700487047F6
:104DC000BC1701080148FFF792BF00BFBC170108DC
:104DD00070B506460D46144600F014F831462A46D2
:104DE00023460348FCF72CFCBDE87040FCF7F6BBFB
:104DF000C4170108EFF3108000F0010080F00100FB
:104E00007047000038B5FFF7F5FF80F00100C5B22C
:104E100072B60C4C23680BB90B4B1D702368013321
:104E200004D10A480A493522FFF7D2FF23682BB183
:104E300025B9084806493922FFF7CAFF236801331C
:104E4000236038BD340E0020380E0020F51701080D
:104E50001B1801085E18010810B50A4C236883B1BD
:104E6000FFF7C8FF20B1084808494A22FFF7B0FF02
:104E70002368013B236023681BB9054B1B7803B9EA
:104E800062B610BD340E00205E1801081B18010820
:104E9000380E00200FB407B504A951F8040B019196
:104EA000FCF7A6FB012001F0CBF938B50446FFF76B
:104EB00081FB0546FFF77EFB401BA042FAD338BDBD
:104EC00007EE100ADFED047A67EE277AFDEEE77A47
:104ED00017EE900AFFF7E9BF002474494FF47A7384
:104EE0005843FFF7E2BF007B7047000038B5044627
:104EF0000A4B0360002343600D46A160027308481B
:104F0000FCF7A4FD25B1074B1A6862601C6000E045
:104F100065600348FCF79AFD204638BD80180108FB
:104F2000400E00203C0E002010B50D4B03600446DF
:104F30000C48FCF78BFDA3686BB10B4A1368A342C6
:104F400002D16368136006E05A68A24201D013469A
:104F5000FAE762685A600348FCF778FD204610BD06
:104F600080180108400E00203C0E002010B50446B9
:104F7000FFF7DAFF2046FCF765FD204610BD000074
:104F800070B506460C480D46FCF760FD0B4B1C68DF
:104F90006CB1A06848B131462A4602F0DDFC20B968
:104FA000A06802F0ABFCA84201D06468F0E70248B8
:104FB000FCF74CFD204670BD400E00203C0E00204A
:104FC00010B5074B0446002240F8043BFFF78EFF64
:104FD000044B03F108023C3322606360204610BD9D
:104FE000201401088818010810B5074B03F10802C6
:104FF0003C330446026040F8043FFFF795FF20462B
:10500000FCF73AFD204610BD88180108F8B5C1F339
:105010000A56A6F2FF34132C0B460D460DDC002C6D
:1050200001F000411ADB104B234125EA0305002261
:1050300045EA010310461946F8BD332C024603DD4C
:10504000B4F5806F0DD0F8BDA6F213464FF0FF31D6
:10505000F14020EA010210462946F8BD0022104620
:10506000F8BD0AF075F8F8BDFFFF0F000000000062
:105070002DE9F04FDFF8ECA28BB01F468046894641
:10508000164600F071F99AF90030013304460D46D6
:1050900004D03046394600F081FF20B92046294629
:1050A0000BB0BDE8F08F4046494600F077FF8346DD
:1050B00060BB30463946002200230AF063FC00281A
:1050C000ECD0A14A9AF90030A04DCDF820B00121D2
:1050D00000248DE806005A1CCDE90289CDE9046759
:1050E000CDE906450DD0022B0BD0684600F082FFBB
:1050F000002800F09380089B1BB101F09BF8089BEF
:105100000360DDE906010BB0BDE8F08F404649467B
:10511000002200230AF036FCF8B13046394600225E
:1051200000230AF02FFC834600284ED09FED847B9D
:10513000854A9AF90030019201210022CDE90289C5
:10514000CDE904678DED067B00910892002BCCD051
:105150007E4B0022CDE90623D3E72046294600F006
:1051600017FF834600285ED02046294600220023F0
:105170000AF008FC002891D04046494600F008FF9C
:1051800000288BD03046394600F002FF002885D039
:105190009AF900306C4A01929FED697B042100224C
:1051A000022BCDE90289CDE904678DED067B0091E4
:1051B000089200F08880684600F01CFF002800F08C
:1051C0008280089B002B9CD097E73046394600F040
:1051D000DFFE00283FF462AF30463946002200234C
:1051E0000AF0DAFB00283FF459AF574A9AF800302A
:1051F000CDF820B00121CDE90289CDE904678DE821
:105200000600002B3CD052490020022BCDE90601BC
:1052100030D101F00FF821230360D2E701F00AF842
:105220002123036067E74046494600F0B1FE0028AD
:105230009AD03046394600F0ABFE002894D0204684
:10524000294600F0ABFE00BB3F4B9AF800400890A7
:105250000122CDE90289CDE904678DE80C007CB11B
:105260000020002102460B460AF04EFA022CCDE93E
:105270000601CED0684600F0BDFE0028A1D1C8E7E7
:105280009FED2F7B8DED067BF4E72F4A9AF90030D6
:10529000CDF820B00321CDE90289CDE904678DE87E
:1052A0000600ABB92B4D4FF0604440464946002202
:1052B0000023CDE906450AF06FFB50BB9AF9003098
:1052C000022B7FF478AF00F0B5FF2223036078E76C
:1052D000214D00244046494600220023CDE90645E1
:1052E0000AF05AFB0028E9D000221C4B3046394610
:1052F0000AF0E0F804460D4600F084FE22462B46F4
:105300000AF040FB0028D9D1114B0022CDE9062339
:10531000D4E70022114B304639460AF0CBF8044658
:105320000D4600F06FFE22462B460AF02BFB0028AC
:10533000C4D10B4B4FF06042CDE90623BEE700BF5E
:105340000000000000000000CC1801080000F03F41
:105350000000F0FFFFFFEF470000F07F0000E03F9C
:10536000FFFFEFC70C0000202DE9F04F23F00047AE
:105370008B4657EA02011D469C4691B014461346DF
:1053800035D06B492BF000468E4282460246D94604
:1053900026DC24D08F4223DC65498F4200F08280D6
:1053A000B9F1000FC0F282804FF0000873BB604B70
:1053B0009F4200F098805F4B9F426CD0BCF1804FC1
:1053C00000F0DC835C4B9C4520D1B9F1000F1DDB64
:1053D0005046594611B0BDE8F04F00F011BD58B12C
:1053E00006F1404606F5801656EA020306D15149F9
:1053F000002011B0BDE8F08FB742CDDD4F4811B0AD
:10540000BDE8F04F00F0F8BD4FF000085046594697
:105410000292CDF800C000F0B7FD029ADDF800C09E
:10542000D2B926B1434B29F040429A4214D1BCF183
:10543000000FC0F2DA83B9F1000FDADA06F1404664
:1054400006F5801658EA060361D0B8F1010FD0D1F5
:1054500001F1004B5946CCE74FEAD97909F1FF3900
:1054600058EA090351D0364B9F426FDD03F10473B4
:105470009F4240F3FB83334B9E4240F37883BCF161
:10548000000F40F3788328A1D1E9000102460B46C2
:105490000AF010F8ADE7BCF1000FC0F2528450469C
:1054A0005946A6E7002B3FF47BAF99E726498F4288
:1054B00036DCA1F154718F427FF776AF391540F297
:1054C0001340814240F35384C1F58661033123FACE
:1054D00001F000FA01F199427FF466AF00F001009B
:1054E000C0F1020862E706F1404303F5801313435D
:1054F0003FF47DAF134B9E4240F37083BCF1000F2D
:10550000C0F239832046294673E750465946024681
:105510000B4609F01BFE02460B460AF0F5F868E759
:105520004FF0020842E700BF9C7500883CE4377EDC
:105530000000F07F0000F03F0000E03F5819010834
:105540000000E041FFFFEF3FFFFF3F43B6F5801F44
:1055500080F2F5830022CE4B09F0ACFF6FF03407E8
:105560000E463315DFF844E3C6F31302A3F2FF330C
:1055700042F07F563B4472450E9346F4401640F38A
:10558000DB83C44B9A4240F30A840E9B002701330D
:105590000E93A6F58016BC46BF4B4FEACC0C634475
:1055A00093ED007B314653EC172BCDF83CC08DEDCD
:1055B000067B824609F0CAFDB346DDE90623CDE944
:1055C000080150463146CDE90AAB09F0C1FD02465B
:1055D0000B460020B1490AF097F802460B46DDE978
:1055E0000801CDE90C2309F065FF731043F0005367
:1055F00003F5002382468B46D9190023CDE902AB7F
:1056000002939DED027B002006460F4602460B46A4
:1056100051EC170B8DED007BCDE904AB09F04AFF8F
:1056200002460B46DDE9080109F090FDDDE906239D
:1056300082468B463046394609F088FD02460B46C5
:10564000DDE90A0109F082FD02460B46DDE90001B1
:1056500009F030FF02460B465046594609F076FDE8
:10566000DDE90C2309F026FFDDE90423CDE906017D
:105670001046194609F01EFF02460B4606460F4625
:1056800009F018FF70A3D3E9002382468B46304609
:10569000394609F00FFF6EA3D3E9002309F058FD46
:1056A00032463B4609F006FF6BA3D3E9002309F01D
:1056B0004FFD32463B4609F0FDFE69A3D3E90023C6
:1056C00009F046FD32463B4609F0F4FE66A3D3E9F5
:1056D000002309F03DFD32463B4609F0EBFE64A392
:1056E000D3E9002309F034FD02460B4650465946E3
:1056F00009F0E0FEDDE9042306460F46DDE900017E
:1057000009F026FDDDE9062309F0D4FE32463B46CA
:1057100009F01EFDDDE9006782468B4632463B46B6
:105720003046394609F0C6FE00225D4BCDE908013E
:1057300009F00EFD52465B4609F00AFD02980F463D
:1057400006463246DDE900013B4609F0B3FE32462B
:105750003B46CDE90001DDE9060109F0ABFE002280
:10576000CDE906014E4B3046394609F0EFFCDDE944
:10577000082309F0EBFC02460B465046594609F057
:10578000E5FCDDE9042309F095FE02460B46DDE960
:10579000060109F0DDFC82468B4652465B46DDE998
:1057A000000109F0D5FC029833A3D3E90023064693
:1057B0000F4609F07FFE32A3D3E90023CDE90401AF
:1057C0003046394609F076FEDDE90023CDE90601D1
:1057D0003046394609F0BAFC02460B465046594657
:1057E00009F0B4FC28A3D3E9002309F063FE0246C4
:1057F0000B46DDE9060109F0ABFCDDF83CC0294BA6
:10580000CDF800C06344D3E9002309F0A1FC82462F
:105810000E988B4609F0E8FD234BDDF800C09C4450
:105820009CED007B06460F4652465B46DDE90401CF
:105830008DED007BCDE906AB09F08AFCDDE90023A4
:1058400009F086FC324633E0EF4E454A287ECA3FD7
:1058500065DBC9934A86CD3F01411DA96074D13FE4
:105860004D268F515555D53FFFAB6FDBB66DDB3FF6
:10587000033333333333E33F000000E009C7EE3F27
:10588000F5015B14E02F3EBEFD033ADC09C7EE3F95
:105890000000404379B60B00F01801080000F03F0B
:1058A00000000840E0180108D01801088E98030095
:1058B0003B4609F04DFC029832463B4682468B46F9
:1058C00009F044FCDDE9002309F040FCDDE9042394
:1058D00009F03CFC02460B46DDE9060109F036FC06
:1058E000CDE9020108F1FF3858EA090340F071815F
:1058F0009FEDC17B8DED047B0023CDE90045009336
:10590000DDE90067204632463B46294609F01EFC89
:1059100052465B4609F0CEFDDDE90223804689460A
:105920002046294609F0C6FD02460B464046494638
:1059300009F00EFC524604460D46304639465B4699
:10594000CDE9024509F0B6FD06460F462046294638
:105950003B46324609F0FCFBBF4B994204460D46DC
:105960008A4640F3128101F13F4303F5E00303430C
:1059700040F0EF81A2A3D3E90023DDE9020109F0A1
:10598000E7FB3246804689463B462046294609F0D9
:10599000DDFB02460B46404649460AF01BF800284C
:1059A00040F0D781A8464FEA2852A2F2FE324FF4C7
:1059B000801313415344C3F30A54A84AA4F2FF319D
:1059C0000A4123EA020100200246C3F3130B3046CA
:1059D0000B46394609F0BAFBC4F5826403344BF434
:1059E000801B4BFA04FB8BEAEA7B06460F460BEB67
:1059F000DA7BDDE9020132463B464FEA0B5A09F0F9
:105A0000A7FB002480A3D3E9002320460D4609F01C
:105A100051FD3246804689463B462046294609F0DC
:105A200095FB02460B46DDE9020109F08FFB78A3E6
:105A3000D3E9002309F03EFD77A3D3E9002306460E
:105A40000F462046294609F035FD02460B463046F2
:105A5000394609F07DFB06460F4632463B46404636
:105A6000494609F075FB42464B4604460D4609F08F
:105A70006DFB02460B463046394609F067FB22466D
:105A8000804689462B462046294609F013FD64A32B
:105A9000D3E9002306460F4609F00CFD62A3D3E9C3
:105AA000002309F053FB32463B4609F003FD60A397
:105AB000D3E9002309F04CFB32463B4609F0FAFCDF
:105AC0005DA3D3E9002309F041FB32463B4609F0D0
:105AD000F1FC5BA3D3E9002309F03AFB32463B46D5
