:020000040800F2
:10000000008001201D1B0008511B0008511B000827
:10001000511B0008511B0008511B00080000000084
:10002000000000000000000000000000511B00085C
:10003000511B000800000000511B0008511B000864
:10004000511B0008511B0008511B0008511B0008E0
:10005000511B0008511B0008511B0008511B0008D0
:10006000511B0008511B0008511B0008511B0008C0
:10007000511B0008511B0008511B0008511B0008B0
:10008000511B0008511B0008511B000819090008EA
:100090001D090008511B000815090008511B000824
:1000A000511B0008511B0008511B0008511B000880
:1000B000511B0008511B0008511B0008511B000870
:1000C000511B0008511B0008511B0008511B000860
:1000D000511B0008511B0008511B0008511B000850
:1000E000511B0008511B0008511B0008511B000840
:1000F000511B0008511B0008511B0008511B000830
:10010000511B0008511B0008511B0008511B00081F
:10011000511B0008511B0008511B0008511B00080F
:10012000511B0008511B0008511B0008511B0008FF
:10013000511B0008511B0008511B0008511B0008EF
:10014000511B0008511B0008511B0008511B0008DF
:10015000511B0008511B0008511B0008511B0008CF
:10016000511B0008511B0008511B0008511B0008BF
:10017000511B0008511B0008511B00080000000023
:10018000511B0008511B000810B5054C237833B9EA
:10019000044B13B10448AFF300800123237010BD5A
:1001A000C80800200000000090060108084B10B5A8
:1001B0001BB108480849AFF300800848036803B939
:1001C00010BD074B002BFBD0BDE81040184700BF07
:1001D0000000000090060108CC080020C4080020A0
:1001E00000000000154B002B08BF134B9D46A3F5E4
:1001F000803A00218B460F461348144A121A05F024
:10020000C5FC0F4B002B00D098470E4B002B00D0A5
:1002100098470020002104000D000D48002802D05E
:100220000C4809F005FE05F0C1FA2000290001F094
:10023000E6F904F011FD00BF000008000080012075
:1002400000000000F1150008C8080020B40E0020CE
:10025000319E000821AE0008704710B5044601F039
:1002600025FA204610BD0000014B0360704700BF17
:10027000C0F60008490010B54160782001F00AFA84
:1002800016221721044604F059F8044B04491C6057
:10029000204604F093F8012010BD00BFE4080020C0
:1002A000801A06003921FFF7E5BF0000F0B585B0E0
:1002B0000446174601F00F0104AA0D4D61F07F01BD
:1002C0001E46012302F8041D28680093616804F0AB
:1002D000A5F850B90090616828683A46334604F0A2
:1002E000BEF8B0FA80F0400900E0002005B0F0BD93
:1002F000E40800200A4601230A21FFF7D7BF0A4677
:1003000001210B46FFF7D2BF0A4602230C21FFF75B
:10031000CDBF0A4602230E21FFF7C8BF1FB58DF8D7
:100320000D20002200920346094A01F00F0161F0FE
:100330007F018DF80C101068596803AA022304F09D
:100340006DF8B0FA80F0400905B05DF804FB00BF1D
:10035000E408002000210322FFF7E0BF012905D0B7
:1003600003D302290ED1102100E0002112B1012A8D
:1003700008D1102201F00F0322F00F0201211A43CD
:10038000FFF7CCBF002070470B4B0C491A680132B5
:100390001A600B68412A03F101030B6004DD084A6F
:1003A000117809B901211170B3F57A7FC2BF054BED
:1003B00001221A70704700BFA00900205C090020CC
:1003C000E8080020540900200368184708B10B68AA
:1003D0000360704770470000B0F90030013310B57A
:1003E000044604D1064807493F2204F011FBA368E4
:1003F0001A6863681A4214BF0120002010BD00BFB4
:10040000D4F60008ECF6000838B5B0F90030013336
:1004100004460D4604D106480649352204F0F8FA90
:1004200063680DB1E26800E02269136038BD00BF67
:10043000D4F60008ECF6000837B5082001F02AF9D8
:100440002A4D0446FFF710FF29499DF8002029484E
:100450002C6004F0F1F82868FFF724FF044610B977
:100460002448254906E02868FFF774FF044620B9B0
:100470002048224904F0E0F835E028686946FFF793
:1004800039FF04461B480CB91D49F3E71D499DF887
:10049000002004F0D1F8286801A9FFF730FF28B93F
:1004A0001448194904F0C8F800241CE017499DF8C5
:1004B0000420104804F0C0F8286802210122FFF748
:1004C0004DFF044610B90B481149D3E7286801A92C
:1004D000FFF715FF04460028E2D006480D499DF8B5
:1004E000042004F0A9F8204603B030BD58090020CC
:1004F00030F700083809002048F700086EF70008B8
:1005000090F70008B6F70008C3F70008FCF70008EA
:100510001EF800085CF800082DE9F3412F48304927
:1005200004F08AF800242F4A1378002B3ED00023D1
:1005300013702D4A2D4E1360122333702C4FDFF8A9
:10054000D8802C4DD8F800003423737056233B70AC
:10055000314678237B70FFF7D7FE28B91F4826491C
:100560002A6804F069F80134D8F800002049FFF740
:10057000D0FE28B9194820492A6804F05DF80134F2
:100580003278737800921D492A68144804F054F8B0
:100590003A787B781A49009210482A6804F04CF89F
:1005A0000E4818492A68234604F046F8164B1A7874
:1005B00082B11649164800220A601A700D4A136863
:1005C00001331360FFF708FFB0FA80F110484909C2
:1005D000FFF71AFF0F4804F093FAA4E73809002048
:1005E0007CF80008E8080020A0090020B8090020D5
:1005F000BA0900209C09002094F80008A9F8000816
:10060000BDF80008D1F80008540900205C0900205A
:10061000880900206F12833A58090020C36810B57A
:1006200004460BB19B689847204610BD70B505463F
:10063000074B45F8283B064645B100F14804AC425B
:1006400004D0103C2046FFF7E9FFF8E7304670BDC4
:100650002000010810B50446FFF7E8FF204601F02E
:1006600025F8204610BD000010B5084B036003F1CB
:1006700020025C330446C26403654C3003F0CAFFB9
:100680002046FFF7D3FF204610BD00BF10FF000833
:10069000A0F14C00FFF7E8BFA0F15000FFF7E4BF66
:1006A00038B50546064B45F8183B044604F078F883
:1006B0002846FFF7B3FF204604F0A8F8204638BDCF
:1006C0003800010810B50446FFF7EAFF204600F0A5
:1006D000EDFF204610BD38B5CB6804460D460BB182
:1006E0005B689847EB68E360204638BD10B520484A
:1006F00088B00021FFF788FE1E480021FFF784FE26
:10070000FFF79AFE68B91B48FFF766FEB0FA80F162
:1007100018484909FFF778FE4FF07E5004F0F0F9D1
:10072000F1E715491548164C03F086FF4FF07E504F
:1007300004F0E6F9134B009304A8134B03936946A6
:10074000FFF7C9FF2046FFF769FF1CB1204604A947
:10075000FFF7C1FF4FF47A710C4804F00DF804A8BC
:10076000FFF75CFF6846FFF759FFFFF7D5FE00BFB4
:1007700088090020A4090020E7F8000838090020B3
:100780007809002089030008C8F6000860090020E5
:1007900010B50446FFF768FF204600F087FF2046AB
:1007A00010BDA0F14C00F3E7A0F15000F0E700000D
:1007B000F7B51A4D1A4E284604F008F80024194BD4
:1007C0002B606C622846184D18493246142700F0F9
:1007D00051FF3A462146284605F0D8F92846144DDF
:1007E000482104F04CF83A462146284605F0CEF957
:1007F000284612210F4D04F042F84FF4165300938F
:10080000284635213622234603F08EFE0A49284623
:10081000324603B0BDE8F04000F02CBF6009002074
:10082000000000203800010888090020A106000807
:10083000A4090020EC080020690600082E4B5A6924
:1008400070B52E4CD107236017D598682C4A99684B
:100850000A4099682B4B03402A48834207D0284B13
:100860009A4204D0284B284A0B40934205D1274B8B
:10087000274A1B681068012198472368DA685B697A
:10088000920707D09E0705D5204B214A1B681068A8
:1008900000219847236899695A695B698D0709D5D2
:1008A000900507D5190405D5184B194A1B6810681F
:1008B0000521984723689E695D695B69C6F38006D8
:1008C000C5F3802546B13DB11A0405D50F4B104A3A
:1008D0001B6810680721984723685B6956B14DB1C2
:1008E0001B0407D5094B0A4A1B6810680221BDE8A2
:1008F0007040184770BD00BF00640040BC09002074
:10090000000300080300000400000310FC0900209D
:10091000000A0020FFF792BFFFF790BFFFF78EBFDE
:1009200010B50C4CA268A468B4F1006F13460CD14A
:10093000131F094A53F8044F42F8044F074CA242D0
:10094000F8D1044A4FF080539360103043F82010E0
:1009500010BD00BF00ED00E0FCFFFF0F84010010A0
:10096000431C10B5044604D106480749272204F069
:100970004FF82046002100F013FD04F00F04012081
:10098000A04010BDD9F6000898FA000870B50446DA
:100990004B1C0E46218010D0C1F3031000F098FCD0
:1009A00005463046FFF7DCFF05F11003A36005F1B3
:1009B000180328356060E360256170BDB0F9000060
:1009C00000F01CBD38B5B0F90030013305460C46C7
:1009D00004D107480749472204F01AF8012CB5F959
:1009E00000000CBF21460021BDE8384000F0D8BC13
:1009F000D4F6000898FA000838B5144B1A68116943
:100A000011F0020F1C4607D0D368980704D56FF089
:100A10000203136103F0F6FF23681A69510714D526
:100A2000DA68520711D56FF00402094D1A615C6A49
:100A30002B68E31AB3F57A7F07D301F095F8034BDF
:100A40001B6804F57A729A632C6038BD740E00201E
:100A5000040A002030B589B003A801A902F042FCC5
:100A600002F010FC234B01909A6D234C42F00802D7
:100A70009A659A6D02F008020292029A9A6B42F00D
:100A800008029A639A6B22F008029A63069AA3F509
:100A9000013323604FF0FF33E360184B02B1400095
:100AA000B0FBF3F001380025606013482561A560B4
:100AB000656102F0F7FF32201149FFF731FF114B5A
:100AC0000D484FF480225A60294603F011F80421A2
:100AD000094803F00DF823680B4A596A116012683F
:100AE00002F57A729A63DA68284642F00402DA6004
:100AF00009B030BD00100240740E002040420F00CB
:100B0000F909000800E100E0040A002010B5054BD7
:100B10009C68204601F078FB2046BDE8104001F0BB
:100B200042BF00BF080A002010B5054B5C68204694
:100B300001F06AFB2046BDE8104001F034BF00BF61
:100B4000080A002010B5054B1C68204601F05CFB2C
:100B50002046BDE8104001F026BF00BF080A002073
:100B60002DE9F84390F85C7090F85D607DB274B246
:100B7000804689462846FFF7D3FE49462046FFF7C0
:100B8000CFFE98F86C30002B0CBF02230123002D00
:100B9000A8BF05F160424FEA0313AFBF02F56142FF
:100BA000144A07F00F00D9B2AABFD9B2115482F883
:100BB0000013002CADBF04F1604206F00F010D4A96
:100BC00002F56142B5BFDBB2DBB2535482F80033A9
:100BD0006D090123084A07F01F07640906F01F0684
:100BE00003FA07F1B34042F8251042F82430BDE87B
:100BF000F88300BF14ED00E000E100E010B590F8CC
:100C00005D4090F95C0000F0CFFF60B2BDE810409D
:100C100000F0CABF90F85030012B00F1040107D05A
:100C200004D3022B054818BF002002E0044800E06E
:100C30000448054A42F82310704700BF0D0B000816
:100C4000450B0008290B0008080A0020194A036810
:100C50001268416DB2FBF1F1142243604A43996975
:100C6000090401D5013AFAD1134A934208D1134B32
:100C70009A6B42F400129A639A6B22F4001216E007
:100C80000F4A934208D10D4B9A6B42F480029A634B
:100C90009A6B22F480020AE00A4A934208D1074B79
:100CA0009A6B42F400029A639A6B22F400029A63F0
:100CB000704700BF080000200054004000100240B0
:100CC00000580040005C00404B4AF8B513680D46E0
:100CD000416DB3FBF1F114234B4341680446061DFB
:100CE00017468A69120401D5013BFAD1434B9D4254
:100CF0000BD0434B9D4208D0424B9D4205D0424809
:100D0000424940F26D1203F083FE414B3A689A4229
:100D10003C4B0AD13A4A954203D09D4203D03D4B09
:100D20000CE03D4B14E03D4B12E03D498A420ED1B0
:100D3000334A954207D09D4207D03A4B2F4A9542FD
:100D400018BF002304E0384B02E0384B00E00023DA
:100D5000A3602C4B9D4217D12268354B9A4203D198
:100D60004FF4801001F090FE2268324B9A4203D17A
:100D70004FF4001001F088FE22682F4B9A4203D1F5
:100D80004FF4800001F080FE2368294A934208D185
:100D900002F5DE32D2F8883023F4405343F4805316
:100DA00016E0244A934208D102F5DC32D2F88830AA
:100DB00023F4404343F480430AE01F4A934209D19D
:100DC00002F5DA32D2F8883023F4403343F480332A
:100DD000C2F888300021304601F030FE0123236143
:100DE0000023636123626362E360A361304601F024
:100DF000A0F86565F8BD00BF08000020A0860100CE
:100E0000801A060040420F00EFFA000823FB00089A
:100E100000B4C4046B4EC1303A14D110270E8100C7
:100E2000006CDC02553EA020210C801016085000FA
:100E30000054004000580040005C0040F0B50446FB
:100E400085B00E4608465649154603F057FD5549EC
:100E50000746284603F052FDA4F858600146A4F85E
:100E60005A50384603F02CFD2060013004D14E4822
:100E70004E49FC2203F0CCFD22684D4B9A4225D10D
:100E8000002384F8503003F1804303F504333046E7
:100E90009A6D434942F400129A659B6D03F4001366
:100EA0000193019B03F0EEFC28463E4903F0EAFC67
:100EB0003046012100F0A2FA2846012100F09EFAF6
:100EC0001F2384F85C30202384F85D302268394B7E
:100ED0009A4223D1012703F5DC3384F850709A6DD0
:100EE0002F4942F480029A659B6D03F480030293BC
:100EF0003046029B03F0C6FC28462A4903F0C2FC98
:100F00003046394600F07AFA2846394600F076FA3B
:100F1000212384F85C30222384F85D302268264B3C
:100F20009A4222D1022384F85030244B1C499A6DF6
:100F300042F400029A659B6D03F40003039330466C
:100F4000039B03F09FFC2846164903F09BFC3046A8
:100F5000012100F053FA2846012100F04FFA4823FE
:100F600084F85C30492384F85D30636D0BB9144B11
:100F700063652046FFF76AFE2046616DFFF7A4FE19
:100F800000234FF0007284F86D3084F86C3084F8E0
:100F90006E30226684F86430A36605B0F0BD00BFF1
:100FA00000F90008CCF900086AFB000823FB0008E0
:100FB0000054004000580040005C00400010024017
:100FC000A08601002DE9F34104461646089804F175
:100FD00004081D468FB203B15AB940463946012272
:100FE0000A2300F0F4FF00280CBF00206FF001007E
:100FF0004BE0236EB3F1007F05D110B14FF00073C9
:1010000008E0206607E033F0807304D10028F5D1B2
:101010004FF080732366002384F864302046FFF786
:10102000F9FD01462046FFF79BFD236E00934046E5
:1010300039463246ABB201F093F810BB144B666DE3
:101040001B68B3FBF6F61E235E4305FB066694F8A9
:10105000643013F01E0F05D1013E03D0012003F0D0
:1010600044FDF4E72046FFF7C9FD1EB194F8643053
:10107000082B09D02046B4F95810B4F95A20FFF7CC
:10108000DDFE6FF0010000E0284602B0BDE8F0810F
:10109000080000202DE9F34104461646089804F1A3
:1010A00004081D468FB203B15AB9404639460122A1
:1010B0000A2300F08CFF00280CBF00206FF0010015
:1010C0004BE0236EB3F1007F05D110B14FF00073F8
:1010D00008E0206607E033F0807304D10028F5D1E2
:1010E0004FF080732366002384F864302046FFF7B6
:1010F00091FD01462046FFF733FD236E00934046E5
:1011000039463246ABB200F0EBFF10BB144B666DB4
:101110001B68B3FBF6F61E235E4305FB066694F8D8
:10112000643013F01E0F05D1013E03D0012003F0FF
:10113000DCFCF4E72046FFF761FD1EB194F8643053
:10114000082B09D02046B4F95810B4F95A20FFF7FB
:1011500075FE6FF0010000E0284602B0BDE8F081A6
:1011600008000020836F07B5ABB1D0F8883093B189
:1011700090F8702012B14FF0007201E04FF08072D1
:10118000C265C26DB0F86C100092D0F884209BB29A
:1011900000F0E6FF02E0082380F8603003B05DF85D
:1011A00004FB082380F86030704738B5051D0446FD
:1011B000C260284600F0BDFE2046FFF72BFD014629
:1011C0002046FFF7CDFC2846BDE8384001F008B8BE
:1011D00070B590F868500446061F05B18568B4F9EB
:1011E0005410B4F956203046FFF728FE00210B4674
:1011F00030462A46FFF7D9FF022384F8603070BDDD
:10120000012902D180F86910704711B9012380F8D3
:101210006A307047002380F869307047002380F8F7
:101220006A30704700F0DCBF10B5044650F804295E
:10123000136823F0FE031360FFF7E0FC022384F839
:10124000603010BD08B503F0FDFB962003F066FC8E
:10125000962003F063FCF8E730B50546A1B00C46D4
:1012600003F0F0FB29466846224608F097FC051E6D
:1012700003DC03F011FC21B030BD094B1B6823B91E
:1012800008483521362200F0FFFA00241DF804102A
:101290000448013400F02AFCAC42F7D1E9E700BF72
:1012A000CC0D00204C0E00200FB407B504A951F856
:1012B000040B0191FFF7D0FF03B05DF804EB04B01D
:1012C000704708B502F0A4FEBDE8084000F041BC3C
:1012D0007FB507284ED8DFE800F004111D29354DF1
:1012E0004D41284BDA6C42F00102DA64DB6C03F00A
:1012F00001030093009B4FF090403FE0214B2248B8
:10130000DA6C42F00202DA64DB6C03F00203019350
:10131000019B33E01B4B1D48DA6C42F00402DA6497
:10132000DB6C03F004030293029B27E0154B184883
:10133000DA6C42F00802DA64DB6C03F00803039312
:10134000039B1BE00F4B1348DA6C42F01002DA6487
:10135000DB6C03F010030493049B0FE0094B0E4871
:10136000DA6C42F08002DA64DB6C03F080030593F0
:10137000059B03E0094803F0ADFB002007B05DF8D2
:1013800004FB00BF001002400004004800080048B1
:10139000000C004800100048001C004884FB0008B6
:1013A00030B5431C87B005460C4604D1104811499E
:1013B000632203F02DFBC5F30310FFF789FF05F04F
:1013C0000F050123AB4004F00F0201930A4B53F8C1
:1013D00022300293C4F302130393C4F3C314032310
:1013E00001A90493059400F017FC07B030BD00BFBD
:1013F000D9F60008A5FB0008FCFB0008431C70B5EB
:1014000006460C4604D10D480D49882203F000FB26
:10141000C6F30310FFF75CFF06F00F05C1686B0011
:1014200003229A4021EA0202032CC260C26828BF4C
:1014300000249C401443C46070BD00BFD9F600086E
:10144000A5FB000870477047036870B504465B6AE7
:101450009847236820461B69002101229847431CB6
:101460000646236804D120469B6A9847304670BDE3
:101470001B69204600210222984723680546314611
:1014800000221B6920469847236820469B6A98479C
:10149000284670BD08B5084B1B685BB90748352165
:1014A000362200F0F1F905484FF41651BDE8084026
:1014B00000F0DEBA08BD00BFCC0D00204C0E0020AD
:1014C00002284FF0000309DDC21E074951F822002F
:1014D00041F8223020B103685B681847184670470E
:1014E0004FF0FF30704700BF280A0020022870B577
:1014F0000C4615460FDC0E4B1B680BB9FFF7CAFFF5
:101500006619B44205D00B4814F8011B00F0EEFA3E
:10151000F7E7284670BD0338074B53F8200020B189
:101520000368BDE870401B6818474FF0FF3070BD7E
:10153000CC0D00204C0E0020280A0020022810B5F7
:101540000C460ADC0B4B1B680BB9FFF7A3FF0A48DC
:1015500000F0AAFA2070012010BD0338074B53F8A1
:10156000200020B10368BDE810409B6818474FF089
:10157000FF3010BDCC0D00204C0E0020280A0020AA
:10158000022807DD0338064B53F8200020B103681A
:10159000DB681847012070474FF0FF30704700BFED
:1015A000280A0020022807DD0338064B53F82000E4
:1015B00020B103681B691847002070474FF0FF30C7
:1015C000704700BF280A0020022808B504D84FF44D
:1015D00000534B60002008BD03F038FB0923036073
:1015E0004FF0FF3008BD08B5012003F035FB704710
:1015F00008B5FFF766FEFFF7FAFF08BD704708B5AC
:10160000FFF7FCFFBDE80840FFF770B80C4A13680D
:1016100010B51844EFF30881884205D3094B0C221A
:101620001A604FF0FF3010BD0749096821B1074C1F
:10163000246821448842F1D21060184610BD00BFD2
:1016400004000020B00E0020240A0020280B0020F7
:10165000074C08B523680546986803F017FC236813
:10166000D86803F013FC0DB1FFF7ECFDFEE700BFF7
:101670003804002001207047002104F07BBB704734
:10168000704708B5FFF7FBFF08BD08B5FFF7F8FF87
:1016900008BD000010B504F021F9044610B9024855
:1016A00003F018FA204610BDF2FC000808B104F05F
:1016B0001DB97047034610B553F8042B044602B910
:1016C000036022689A4204D003480449592203F077
:1016D0009FF9206810BD00BF2EFD000842FD0008E4
:1016E0000B4B10B5036004460A48FFF7E3FF0023E5
:1016F000094A52F82310A14204BF002142F82310E6
:101700000133402BF4D10348FFF7D4FF204610BD2E
:10171000A8FD00081C0A0020280A00202DE9F3413A
:1017200088463649054604F04FFC044610B9FFF7D9
:10173000B1FE5EE02846324904F046FC18B9FFF7D6
:10174000A9FE012455E028462E4904F03DFC18B9B5
:10175000FFF7A0FE02244CE02B48FFF7ABFF00246C
:101760002A4E56F82430374633B10134402CF7D195
:101770002548FFF79FFF3AE04FF0FF33224846F835
:101780002430FFF797FF2B783A2B06D128462049C3
:101790006A4604F099FB009824E06846294602F066
:1017A00071FD684602F0B0FD10B946F824001EE055
:1017B000684602F097FD18B1684602F09CFD11E002
:1017C000684602F088FD054610B946F824000EE090
:1017D000036868469E6802F073FD28F48032014673
:1017E0002846B04747F8240008B1033401E04FF021
:1017F000FF34204602B0BDE8F08100BF34FC000891
:1018000093FD00083BFC00081C0A0020280A002069
:101810008FFD00080346406819497022424310B505
:1018200088181C688C509A6842600246D96842F851
:10183000081F196951605969916000F11002D96956
:1018400091600021A0F85210A0F85010A0F85A1092
:10185000A0F85810B3F91A10013101D1082305E09E
:10186000B3F9183001330CBF04230C23536002F08A
:101870009DFB20B10348BDE8104003F02BB910BD1B
:101880002C0B0020D4FD0008F0B5044687B00846B4
:101890000E466B49154603F031F86A49074628465B
:1018A00003F02CF80146384603F00AF820600130B6
:1018B00004D165486549642203F0AAF82268644BA4
:1018C0009A4214D103F55843196C41F480411964CC
:1018D000196C21F480411964196E41F48041196634
:1018E0001B6E03F480430093009B002316E0594BCA
:1018F0009A4215D103F5E633996B41F400319963AF
:10190000996B21F400319963996D41F40031996527
:101910009B6D03F400330193019B0123636047E057
:101920004D4B9A4214D103F5E4339A6B42F4802272
:101930009A639A6B22F480229A639A6D42F4802211
:101940009A659B6D03F480230293029B022346E079
:10195000424B9A4214D103F5E2339A6B42F40022CF
:101960009A639A6B22F400229A639A6D42F40022E1
:101970009A659B6D03F400230393039B03232EE0DE
:10198000374B9A4214D103F5E0339A6B42F480123C
:101990009A639A6B22F480129A639A6D42F48012D1
:1019A0009A659B6D03F480130493049B042316E053
:1019B0002C4B9A4214D103F5C833DA6B42F0010282
:1019C000DA63DA6B22F00102DA63DA6D42F00102C7
:1019D000DA65DB6D03F001030593059B0523636066
:1019E0003046174902F04EFF2846164902F04AFFDA
:1019F000721C03D030460121FFF700FD6B1C03D0A1
:101A000028460121FFF7FAFC4FF41653A360002388
:101A1000E36023616361E361268365832046FFF70A
:101A2000F9FE22680B4B9A4207D10F4B0F48012257
:101A30001A602146242203F0ABFF07B0F0BD00BFBF
:101A400014FA000848F90008ECFD000808FE000838
:101A5000003801400044004000480040004C004075
:101A60000050004000800040CC0D00204C0E0020B3
:101A70008160FFF7CFBE0000034B19604168034B44
:101A800043F82120704700BFE80D0020D00D002052
:101A9000426870235343034AD358D869C0F34010B7
:101AA000704700BF2C0B002038B54568044620461F
:101AB000FFF7EEFF0028FAD07023054AE1686B4378
:101AC000D358988C09B9C0B238BDC0F3080038BDEE
:101AD0002C0B0020426870235343034AD358D86923
:101AE000C0F3C010704700BF2C0B002070B54668D3
:101AF00005460C462846FFF7EDFF0028FAD0702374
:101B0000054AE9687343D35809B9E4B201E0C4F364
:101B100008041C8570BD00BF2C0B0020DFF820D00E
:101B2000002103E0074B5B58435004310648074B44
:101B300042189A42F6D302F027FBFEF753FB704798
:101B4000008001200C07010800000020C8080020C8
:101B5000FEE708B5032000F015F80F20FEF77AFF26
:101B600000F058F8002008BD024A136801331360E2
:101B7000704700BF700E0020014B1868704700BF0F
:101B8000700E0020074AD36823F4E0631B041B0C8B
:101B900043F0BF6343F4003300F0070043EA00233F
:101BA000D360704700ED00E04309203300F01F00D0
:101BB00004490122824041F82320BFF34F8FBFF335
:101BC0006F8F704700E100E090F82520022A38B5B9
:101BD00003D00422C263012038BD0268046C11687E
:101BE000456C836B21F00E011160116821F0010139
:101BF00011606268012101FA05F52A436260002440
:101C000080F8251080F8244013B19847204638BD4D
:101C1000184638BD704700002DE9F3470F680023D0
:101C200037FA03F200F0CC8001259D4015EA070E3B
:101C300000F0C4804C6824F01006022E16D14FEA42
:101C4000D30C00EB8C0C03F00708DCF820204FEAE3
:101C500088084FF00F0909FA08F922EA09090A6908
:101C600002FA08F249EA0202CCF820204FEA430CBB
:101C70000322D0F8009002FA0CF2D24304F00308D9
:101C800002EA090A013E08FA0CF94AEA0909012E9A
:101C9000C0F8009011D8866802EA0609CE6806FAF4
:101CA0000CF649EA06068660466826EA0509C4F38A
:101CB00000169E4049EA06064660B8F1030F01BFD0
:101CC000C66A26EA0508C4F3C00505FA03F604BF90
:101CD00048EA0605C562C66816408A6802FA0CF52D
:101CE00046EA0502C260E20068D5374A156E45F043
:101CF00001051566126E23F0030505F1804502F01B
:101D0000010205F58035019203F0030C019AAE68DB
:101D10004FEA8C0C0F2202FA0CF2B0F1904F26EA37
:101D2000020619D0294A904218D002F580629042EA
:101D300016D002F58062904214D002F58062904283
:101D400012D002F58062904210D002F5806290427B
:101D50000CBF062207220AE0002208E0012206E06A
:101D6000022204E0032202E0042200E0052202FA3B
:101D70000CF23243AA60164A156814F4803F6FEAE9
:101D80000E060CBF35404EEA05051560556814F483
:101D9000003F0CBF35404EEA05055560956814F4C8
:101DA000801F0CBF35404EEA05059560D568A4023A
:101DB00054BF06EA05044EEA0504D46001332FE758
:101DC00002B0BDE8F08700BF0010024000040048E8
:101DD0000004014003689A69910744BF00229A6297
:101DE0009A69D2075EBF9A6942F001029A61704710
:101DF00030B50468039D606820F07F7020F459308E
:101E000020F47F7020F0030028430343C1F309014D
:101E10000B4343EA0242626030BD0000184B30B50C
:101E2000446B9C4201F0120201F0040302D0154DF4
:101E3000AC420ED1002B01F011010CBF0023B823DE
:101E4000112908BF43F09003122A12D143F0600316
:101E50000FE0002B0CBF0023B823CC0748BF43F092
:101E6000F203890748BF43F0F403122A08BF43F086
:101E7000200301680A6813430B60002030BD00BFD7
:101E8000E1280008A126000811F0010307D090F80E
:101E9000413003F02803282B0CBF4223F2238A078A
:101EA00009D590F8412002F02802282A0CBF43F0FF
:101EB000440343F0F4034A0701F0110248BF43F022
:101EC000B80301F01201112A08BF43F09003122950
:101ED00001680A6808BF43F0600322EA03030B604D
:101EE000002070472DE9F041069C05460F469046BC
:101EF0001E462B6898693840C21B504250414045ED
:101F000013D1711CF6D056B9202385F84130002337
:101F100085F8423085F840300320BDE8F081FFF7B6
:101F20002BFE001BB042E4D9EEE70020BDE8F081B3
:101F3000704710B50446002847D090F8413003F0B0
:101F4000FF021BB980F84020FFF7F2FF242384F83A
:101F500041302368E1681A6822F001021A60626861
:101F600022F070621A619A6822F400429A60A268B4
:101F700042B1012903D142F400429A6007E042F4E1
:101F800004429A60022904BF4FF400625A605A6802
:101F9000616942F0007242F400425A6022690A43C9
:101FA000A16942EA0122DA60216AE2690A431A6001
:101FB0001A6842F001021A6000202023606484F84D
:101FC0004130206384F8420010BD012010BD2DE98E
:101FD000F04385B01D460023039390F84130202B39
:101FE00004468846174676D103689B6913F400437C
:101FF00071D190F84020012A6DD0012280F8402054
:10200000242280F841204364E3682268012BC8F34E
:10201000090306BF43F0007343F4005343F4205315
:102020005360FFF7A9FD064623689A69910604D517
:102030009A6912F0100220D110E09A69D206F7D402
:1020400094F84120A02AF3D0681CEED0002D3AD09D
:10205000FFF792FD801BA842E6D934E000962046A7
:1020600020212B46FFF73EFF98BB22682023D36137
:1020700084F8413084F840002EE00022009620468B
:1020800020212B46FFF72EFF024610BB23681021AC
:102090004FF02009D961C3F81C900399481CB9423C
:1020A00003900DD1596841F4804159602046009653
:1020B00049462B46FFF716FF58B92368C3F81C9012
:1020C000039BBB42A0D3202384F84130002384F833
:1020D0004030032000E0022005B0BDE8F08300009E
:1020E00037B5044690F84100202833D194F84000D9
:1020F00001282FD0012084F84000212084F84100DD
:10210000102084F84200002060646385069B6262B0
:1021100023F08073E362114B6363638D9BB2FF2BEB
:102120008BBFFF23638D238523854FF400508CBF25
:102130004FF08073E36A94F8282000900025204631
:10214000FFF756FE84F8405020460121FFF766FE57
:10215000284600E0022003B030BD00BFC1270008C0
:1021600037B5044690F84100202833D194F8400058
:1021700001282FD0012084F84000222084F841005B
:10218000102084F84200002060646385069B626230
:1021900023F08073E362114B6363638D9BB2FF2B6B
:1021A0008BBFFF23638D238523854FF410508CBF95
:1021B0004FF08073E36A94F82820009000252046B1
:1021C000FFF716FE84F8405020460221FFF726FE56
:1021D000284600E0022003B030BD00BFC127000840
:1021E00090F84120202A08B509D1282280F8412002
:1021F000044A42630421FFF711FE002008BD0220BB
:1022000008BD00BFF12400080268436B91691268A1
:1022100003B11847704738B5002580F8425090F850
:102220004130212B4FF02003044680F841300BD180
:102230001123036345630121FFF726FE84F8405014
:102240002046FEF78FFF38BD12230363456302214A
:10225000FFF71AFE84F840502046FEF7A2FF38BD73
:1022600038B5002580F8425090F84130292B0446BB
:102270000DD1282380F84130212303630121FFF78A
:1022800003FE84F840502046FEF7C4FF38BD90F8A6
:1022900041302A2B0CD1282380F8413022230363BC
:1022A0000221FFF7F1FD84F840502046FEF7B6FF0B
:1022B00038BD0000164B10B52022C3620023036313
:1022C000436380F8412080F842304B07044611D523
:1022D000436A5A1C42620268526A1A70038D4BB1FB
:1022E000013B0385438D013B9BB24385436C43F027
:1022F0000403436420460721FFF7C6FD236810222C
:10230000DA61002384F840302046FEF78BFF10BDD1
:102310000000FFFF704770470023344A10B580F873
:102320004230C2624385436C1943416490F84130A6
:10233000282B044607D090F84130292B03D090F881
:1023400041302A2B0AD120460321FFF79DFD282387
:1023500084F8413000232363254B0BE00721FFF76E
:1023600093FD94F84130602B1CBF202384F841304A
:1023700000232363636323681A6812F480411A6898
:102380000DD022F48042A06B1A601A4B83630023A5
:1023900084F84030FFF718FC38B3A06B0FE012F45C
:1023A000004210D01A68E06B22F400421A60114B10
:1023B000836384F84010FFF707FCB0B1E06B836BD8
:1023C000BDE81040184794F84130602B08D1202315
:1023D00084F8413084F840202046FEF725FF10BDE8
:1023E00084F840202046FEF7F3FE10BD0000FFFFFA
:1023F000F12400080B2A000838B50368202204469F
:10240000DA610822DA610D460721FFF73DFD2368F6
:102410005A6842F400425A605968334A0A405A6086
:102420002046FFF7D7FC22681368580402D41368CB
:10243000190409D594F84130212B0CBFA36BE36B31
:102440001B685B689BB26385638D9BB21BB1636C39
:1024500043F0040363646B0710D5636A526A591C26
:1024600061621A70238D4BB1013B2385638D013B63
:102470009BB26385636C43F00403636400232363AE
:1024800084F842306363636C6BB1616C2046FFF784
:1024900043FF94F84130282B24D120462946BDE83B
:1024A0003840FFF707BFE26A12F5803F0AD00F4AB3
:1024B000E262202284F8412084F840302046FEF772
:1024C000B1FE38BD94F8412084F84030222A4FF004
:1024D000200284F84120204602D1FEF79FFE38BD3D
:1024E000FEF798FE38BD00BF00E800FE0000FFFFC9
:1024F0002DE9F84390F84030012B04460E4617466C
:1025000000F0CB800123CD0680F840302FD5D006D7
:102510002DD5638D9BB213BBE36AB3F1007F03D06B
:10252000E36AB3F1007F08D194F84130282B04D13D
:1025300020463146FFF7BEFEA2E0E36A13F5803F76
:10254000236809D094F84120292A05D11022DA61A4
:102550002046FFF73FFC26E01022DA6190E0236876
:102560001022DA61636C43F00403636488E071074E
:102570001DD57A071BD5638D9BB263B1636A5A1C64
:1025800062622268526A1A70238D013B2385638D33
:10259000013B9BB26385638D9BB2002B70D1E36AD4
:1025A00013F5803F6CD02046FFF75AFE68E03307F2
:1025B0004AD53D0748D594F8413003F02803282B2D
:1025C00023683BD19A69E1689D69022905F47E057B
:1025D000C2F300484FEA15459A68D3F80C9020D111
:1025E000C2F3090285EAD21515F006050DD1A16CDA
:1025F0000131A164A16C022942D10821A5642046C1
:10260000D96184F84050414615E004212046FFF787
:102610003BFC002384F840302046414609F0FE028E
:1026200009E004212046FFF72FFC002384F8403006
:10263000204641462A46FEF7E3FD21E00822DA6102
:10264000002384F840301BE0B00719D5B90717D52F
:10265000638D9BB26BB1636A2268591C61621B78FF
:102660009362638D013B9BB26385238D013B238580
:1026700006E0E36AB3F1807F95D0E36A002B92D045
:10268000B20605D5BB0603D520463146FFF7B4FE9A
:10269000002084F84000BDE8F8830220BDE8F883FC
:1026A00090F84030012B10B504462DD0012380F85E
:1026B0004030C80615D5D30613D594F841302268AA
:1026C000212B0CBFA36BE36B1B6810215B68B3FA73
:1026D00083F35B09D1619BB9636C43F004036364CA
:1026E0000EE0080705D5130703D523680822DA6131
:1026F00006E0880604D5930602D52046FFF77CFE47
:10270000002084F8400010BD022010BD0368202284
:1027100010B5DA610446294A586802405A6000221E
:1027200022636263A2F58032E262CA0641BF1022D0
:10273000DA61636C43F0040348BF63642046FFF72B
:1027400049FB20460321FFF79FFB636C1BB994F8FC
:102750004120602A05D1616C2046BDE81040FFF79A
:10276000DBBD94F84120212A11D1202284F8412098
:1027700094F8422084F84030402A84F842302046C1
:1027800002D1FFF7C7FD10BDFEF7ECFC10BD94F8B9
:102790004120222A10D1202284F8412094F842209E
:1027A00084F84030402A84F84230204602D1FFF7B6
:1027B000B2FD10BDFEF7F5FC10BD00BF00E800FE45
:1027C00090F84030012B73B504460D46164600F0D4
:1027D00084800123CA0680F840300BD5F30609D562
:1027E00003681022DA61436C43F004034364FFF78B
:1027F000F1FA66E0680708D5710706D5636A5A1CC6
:1028000062622268526A1A7009E0AA070FD5B307FC
:102810000DD5636A2268591C61621B789362238D0F
:10282000013B2385638D013B9BB2638549E028060C
:102830002FD571062DD5208D226818BB638D9BB2D4
:1028400003B35168638D9BB2FF2BC1F3090106D915
:10285000FF220090228520464FF080730AE0628DAF
:10286000E36A92B213F5803F2285D2B205D0E36AC3
:1028700000902046FFF7BCFA23E000904FF0007371
:102880002046F7E753689A010AD42046FFF7C3FCB5
:1028900017E06B0615D5700613D5638D9BB223B177
:1028A00020464021FFF738FD0BE023685A6891016C
:1028B00007D4E26A12F5803FE7D15A6842F48042B9
:1028C0005A60AA0605D5B30603D520462946FFF768
:1028D0001DFF002084F8400000E0022002B070BD1F
:1028E00090F84030012B13B5044659D0012380F8ED
:1028F0004030CB060FD5D3060DD503681022DA6120
:10290000436C43F0040343641221FFF787FA204627
:10291000FFF760FA40E0080637D5530635D523683F
:102920001A6822F040021A60628D92B242B359686E
:10293000638D9BB2FF2B8BBFFF23638D2385238584
:102940004FF000008CBF4FF080734FF0007394F88D
:1029500028200090C1F309012046FFF749FA638D52
:10296000228D9B1A9BB2638594F84130222B2368F9
:102970001A680CBF42F4004242F480421A600BE035
:1029800020464021FFF7C8FC06E0880604D59306E0
:1029900002D52046FFF7BAFE002084F8400000E090
:1029A000022002B010BD036899691A6810B5CC0501
:1029B00009D5140641BF446C44F0010444644FF44B
:1029C000807448BFDC614C0509D5140641BF446CD6
:1029D00044F0080444644FF4806448BFDC61890516
:1029E00009D5120641BF426C42F0020242644FF424
:1029F000007248BFDA61436C13F00B0F04D0416CD6
:102A0000BDE81040FFF788BC10BD806A026808B5B9
:102A1000536843F400435360826B00239363C26B9B
:102A2000936390F84130602B05D1202380F841302A
:102A3000FEF7FAFB08BDFEF7CBFB08BD90F841207E
:102A4000D2B2202A10B51DD190F84030012B19D0F8
:102A5000242380F8413003681C6824F001041C60C2
:102A60001C6824F480541C601C6821431960196898
:102A700041F001011960002380F8412080F84030C6
:102A8000184610BD022010BD084B1A6E42F001021C
:102A90001A661B6E064A82B003F001030193019B84
:102AA00053681843506002B0704700BF00100240E6
:102AB00000000140024B186800F4C060704700BF7E
:102AC0000070004037B51E4DAB6DD900044602D5ED
:102AD000FFF7F0FF0EE0AB6D43F08053AB65AB6DDD
:102AE00003F080530193019BFFF7E4FFAB6D23F0EC
:102AF0008053AB65B0F5007F06D1802C0CD9A02C9B
:102B00008CBF022301230CE0802C07D808D0A4F14D
:102B100070025342534104E0002302E0032300E02B
:102B2000022308490A6822F007021A430A6008686B
:102B300000F00700C01A18BF012003B030BD00BF6D
:102B40000010024000200240F0B5494CA36813F089
:102B50000C0F09D0A36803F00C030C2B26D1E368FB
:102B600003F00303012B21D12268414B12070AD441
:102B7000D3F894304FF4706292FAA2F2B2FA82F271
:102B800003F4706307E01B68F02292FAA2F203F0EC
:102B9000F003B2FA82F2D340364A52F82360A368B7
:102BA00013F00C0F0CBF3046002011E0A36803F0B7
:102BB0000C03042B07D02E4B9B6803F00C03082B4F
:102BC00004D12D4800E02D48002601E000200646F3
:102BD000A368274F03F00C030C2B47D1F968FA6860
:102BE000702393FAA3F302F07002B3FA83F3DA408E
:102BF00001F00303022B02F101054FF4FE410DD059
:102C0000032B19D1F86891FAA1F100F4FE40B1FA52
:102C100081F1194AB2FBF5F2C8400AE0F86891FA6E
:102C2000A1F100F4FE40B1FA81F1C8401349B1FBB3
:102C3000F5F202FB00F30BE0FA6891FAA1F102F45D
:102C4000FE43B1FA81F123FA01F2B6FBF5F35343E7
:102C5000E0684FF0C06292FAA2F200F0C060B2FAEF
:102C600082F2D04001304000B3FBF0F0F0BD00BF75
:102C700000100240BCFE000800127A000024F4009C
:102C80000368F7B5DD06044640F190809D4DAB68C2
:102C900013F00C0F54D12B68980703D5A3690BB917
:102CA00001202DE22A68974B206A110755BFD3F8FF
:102CB00094301B6803F4706303F0F00358BF1B09E2
:102CC000984215D9FFF7FEFE0028E9D12B6843F0A2
:102CD00008032B602B6823F0F002236A13432B6058
:102CE0006B68E26923F47F4343EA02236B6013E0DD
:102CF0002B6843F008032B602B6823F0F003034399
:102D00002B606B68E26923F47F4343EA02236B6024
:102D1000FFF7D8FE0028C3D1FFF716FFAB68F022FB
:102D200092FAA2F203F0F003B2FA82F2D340764AAA
:102D3000D35CD840754B18600F20FDF78BFE35E053
:102D400083691BB32B6843F001032B60FEF714FF6C
:102D500006462A686B4B920706D4FEF70DFF801BD0
:102D60000228F6D90320CBE11A6842F008021A6063
:102D70001A6822F0F001226A0A431A605A68E1696F
:102D800022F47F4242EA01225A600FE02B6823F0CE
:102D900001032B60FEF7F0FE06462B689F0705D562
:102DA000FEF7EAFE801B0228F7D9DBE72368DE077F
:102DB00003D423689D0748D49DE0524DAB6803F0CF
:102DC0000C03082B09D0AB6803F00C030C2B0BD1C0
:102DD000EB6803F00303032B06D12B689803E8D5B7
:102DE0006368002BE5D15BE76368B3F5803F06D0ED
:102DF000B3F5A02F08D12B6843F480232B602B68F8
:102E000043F480332B6008E02A6822F480322A6081
:102E10002A6822F480222A605BB1FEF7ADFE0646E6
:102E20002B689903C5D4FEF7A7FE801BC828F7D9E5
:102E300098E7FEF7A1FE06462B689A03B9D5FEF780
:102E40009BFE801BC828F7D98CE72E4DAB6803F09A
:102E50000C03042B09D0AB6803F00C030C2B19D125
:102E6000EB6803F00303022B14D12B685B0503D539
:102E7000E368002B3FF414AF6A684FF0F85191FA01
:102E8000A1F12369B1FA81F122F0F8528B4013438A
:102E90006B6030E0E368F3B12B6843F480732B6020
:102EA000FEF76AFE06462B6816485F0505D4FEF756
:102EB00063FE801B0228F6D954E742684FF0F851B0
:102EC00091FAA1F12369B1FA81F122F0F8528B4015
:102ED000134343600FE02B6823F480732B60FEF7ED
:102EE0004BFE06462B68580505D5FEF745FE801BB0
:102EF0000228F7D936E72368190709D423685A0747
:102F00002FD498E000100240A4FE00080800002022
:102F100063697C4D93B1D5F8943043F00103C5F853
:102F20009430FEF729FE0646D5F894309B07E5D489
:102F3000FEF722FE801B0228F6D913E7D5F894305D
:102F400023F00103C5F89430FEF716FE0646D5F8C7
:102F500094309F07D2D5FEF70FFE801B0228F6D9CA
:102F600000E7684DAB6DDE005FBFAB6D43F0805393
:102F7000AB65AB6D5EBF03F080530193019B624B69
:102F80001A6854BF01260026D00503D5A368012B7B
:102F900011D118E01A6842F480721A60FEF7ECFD55
:102FA0000746594B1B68D905F0D4FEF7E5FDC01B59
:102FB0000228F6D9D6E6052B0CD1D5F8903043F08F
:102FC0000403C5F89030D5F8903043F00103C5F8FC
:102FD00090300CE0D5F8902022F00102C5F8902046
:102FE000D5F8902022F00402C5F8902073B1FEF7C6
:102FF000C3FD0746D5F890309A070ED4FEF7BCFD06
:1030000041F28833C01B9842F4D9ABE6FEF7B4FD19
:103010000746D5F890309B0705D466B1AB6D23F019
:103020008053AB6507E0FEF7A7FD41F28833C01B74
:103030009842EED996E6A26A0AB9002060E0314DC6
:10304000AB6803F00C030C2B3FF42AAE2B68022A6A
:1030500023F080732B6037D1FEF78EFD06462B6878
:1030600028489F0105D5FEF787FD801B0228F6D969
:1030700078E6616BE36AA26B43EA0123216B0139B5
:1030800043EA0113120943EA4241E36B5B08013B47
:1030900041EA4352236C5B08013B42EA4363C3604D
:1030A000036843F080730360C36843F08073C360B8
:1030B000FEF762FD04462B689801BED4FEF75CFD66
:1030C000001B0228F7D94DE62B68190106D42B689E
:1030D0009A005EBFEB6823F00303EB60EB6823F01C
:1030E000887323F48033EB60FEF746FD04462B68BB
:1030F0009B01A2D5FEF740FD001B0228F7D931E65F
:1031000003B0F0BD0010024000700040594AF8B50D
:10311000136803F00703994205460E460AD829684A
:10312000880713D55448836823F0F002AB68134333
:1031300083600BE0136823F007030B4313601368ED
:1031400003F007038B42EAD00120F8BDCA0706D47A
:10315000484A136803F007039E4256D35FE06B684A
:10316000454C022B226802D112F4003F0AE0032BE7
:1031700002D112F0007F05E013B912F0020F01E056
:1031800012F4806FE0D0A26822F003021343A36020
:10319000FEF7F2FC6B68022B07460DD1A36803F023
:1031A0000C03082BD4D0FEF7E7FC41F28833C01B98
:1031B0009842F3D90320F8BD032B0CD1A36803F088
:1031C0000C030C2BC4D0FEF7D7FC41F28833C01B94
:1031D0009842F3D9EEE793B9A36813F00C0FB7D078
:1031E000FEF7CAFC41F28833C01B9842F4D9E1E7EC
:1031F000FEF7C2FC41F28833C01B9842DAD8A368BC
:1032000003F00C03042BF3D1A2E7136823F00703A8
:1032100033431360136803F00703B34294D1296862
:10322000154C11F0040F05D0A36823F4E062EB689D
:103230001343A3600B0741BFA3682A6923F46053BB
:1032400043EAC20348BFA360FFF77EFCA368F022F5
:1032500092FAA2F203F0F003B2FA82F2D340074AE4
:10326000D35CD840064B18600F20FDF7F3FB00201D
:10327000F8BD00BF0020024000100240A4FE00087C
:1032800008000020084B4FF4E0629B6892FAA2F21B
:1032900003F4E063B2FA82F2D340044AD35C044AF6
:1032A0001068D840704700BF00100240B4FE00080C
:1032B00008000020084B4FF460529B6892FAA2F27B
:1032C00003F46053B2FA82F2D340044AD35C044A56
:1032D0001068D840704700BF00100240B4FE0008DC
:1032E000080000200F2303600B4B9A6802F00302D2
:1032F00042609A6802F0F00282609A6802F4E0622A
:10330000C2609B6803F46053DB080361034B1B68D6
:1033100003F007030B6070470010024000200240DA
:10332000F8B5594BDA6812F0030F04460E461D46F5
:10333000006813D0DA6802F00302824224D11AB383
:10334000DB68702292FAA2F203F07003B2FA82F202
:10335000D34062680133934216D125E0022808D099
:1033600003280AD001280FD11B689F0740F18B80EA
:103370000CE01B6813F4806F05E01A68910305D414
:103380001B6813F4802F01D10120F8BDEB68702277
:1033900092FAA2F223F0730318436368B2FA82F23E
:1033A000013B93401843E8602B6823F080632B6057
:1033B000FEF7E2FB07462B6833491A0106D5FEF7F4
:1033C000DBFBC01B0228F6D90320F8BD4FF4FE43F7
:1033D000A268B6B9086993FAA3F34FF40037B3FAB9
:1033E00083F397FAA7F7E668B7FA87F736099A40A2
:1033F000BE4020F41F33324323F4407313430B6168
:103400002BE0012E086912D193FAA3F3B3FA83F3E8
:103410004FF4C00696FAA6F69A402369B6FA86F6E5
:103420005B08013BB3401A4320F4C00311E093FA58
:10343000A3F34FF0C066B3FA83F396FAA6F69A4068
:103440006369B6FA86F65B08013BB3401A4320F085
:10345000C06323F4FE431A430A612B6843F0806380
:103460002B60FEF789FB06462B68074A1B0105D433
:10347000FEF782FB801B0228F6D9A5E71169A36934
:103480000B4313610020F8BD00100240F8B54F4B0C
:10349000DA6812F0030F04460E461D46006813D08A
:1034A000DA6802F00302824223D112B3DB68702291
:1034B00092FAA2F203F07003B2FA82F2D340626889
:1034C0000133934215D124E0022807D0032809D004
:1034D00001280ED11B689B0776D50CE01B6813F4FE
:1034E000806F05E01A68970305D41B6813F4802FDA
:1034F00001D10120F8BDEB68702292FAA2F223F00C
:10350000730318436368B2FA82F2013B9340184395
:10351000E8602B6823F080532B60FEF72DFB0746F5
:103520002B682A4A990006D5FEF726FBC01B022805
:10353000F6D90320F8BD4FF4FE43A768BEB9506921
:1035400093FAA3F34FF4003EB3FA83F39EFAAEFE70
:10355000E668BEFA8EFE36099F4006FA0EF620F4A3
:103560001F313E4321F440713143516116E05169EE
:1035700093FAA3F34FF0C060B3FA83F390FAA0F08C
:103580009F402369B0FA80F05B08013B834021F043
:10359000C0613B4321F4FE410B4353612B6843F070
:1035A00080532B60FEF7E8FA06462B68074A9B001B
:1035B00005D4FEF7E1FA801B0228F6D9B9E7516974
:1035C00063690B4353610020F8BD00BF0010024047
:1035D0002DE9F743066816F40066044628D0416ECC
:1035E000B1F5800F12D004D809BB0430FFF798FE64
:1035F00010E0B1F5000F03D0B1F5400F0CD016E08C
:10360000A14AD36843F48033D36005E02030002121
:10361000FFF73CFF064658B99B49D1F8883023F4A0
:103620004002636E1343C1F88830002600E0012693
:103630002368D8042AD5A16EB1F1807F12D004D8B6
:1036400019BB201DFFF76CFE11E0B1F1007F03D024
:10365000B1F1407F0DD018E08B4AD36843F480333A
:10366000D36006E004F120000021FFF70FFF0546BC
:1036700000E0354665B98449D1F8883023F04072BE
:10368000A36E1343C1F8883003E00126354600E0FD
:103690002E46236899035ED57B4FBB6DDA0058BF79
:1036A000BB6D7A4A5FBF43F08053BB65BB6D03F0CF
:1036B00080535CBF0193019B136843F480731360D4
:1036C00054BF4FF001084FF00008FEF755FA81464D
:1036D0006E4B1B68DB0506D4FEF74EFAC9EB000003
:1036E0000228F5D92EE075BBD7F89030664A13F45E
:1036F000407315D0D4F884108B4211D0D2F890309A
:10370000D2F8901041F48031C2F89010D2F89010A5
:1037100023F4407321F48031C2F89010C2F8903045
:10372000D80740F13481FEF727FA0546D7F89030E4
:10373000990700F12C81FEF71FFA41F28833401BF4
:103740009842F3D90325B8F1000F05D0BB6D23F0E3
:103750008053BB6500E035462368DA0741BF4A481D
:10376000D0F8882022F00301A26B44BF0A43C0F8BE
:1037700088209F0741BF4448D0F8882022F00C01E0
:10378000E26B44BF0A43C0F888205E0741BF3E4851
:10379000D0F8882022F03001226C44BF0A43C0F8E0
:1037A0008820180741BF3848D0F8882022F0C0018F
:1037B000626C44BF0A43C0F88820D90641BF324832
:1037C000D0F8882022F44071A26C44BF0A43C0F8AC
:1037D00088209A0641BF2C48D0F8882022F4406106
:1037E000E26C44BF0A43C0F888209F0541BF2648C9
:1037F000D0F8882022F44021E26D44BF0A43C0F88B
:1038000088205E0541BF2048D0F8882022F440116E
:10381000226E44BF0A43C0F88820580641BF1A48A8
:10382000D0F8882022F44051226D44BF0A43C0F8EA
:103830008820190641BF1448D0F8882022F440415E
:10384000626D44BF0A43C0F88820DA0541BF0E48C4
:10385000D0F8882022F44031A26D44BF0A43C0F85A
:1038600088209F041ED5084AE16ED2F8883023F0E4
:1038700040630B43B1F1006FC2F8883008D1D368C0
:1038800043F48013D3600DE000100240007000404C
:10389000B1F1806F06D1201D0121FFF741FD002805
:1038A00018BF054623681E031AD5404A216FD2F877
:1038B000883023F040630B43B1F1006FC2F88830C9
:1038C00004D1D36843F48013D36009E0B1F1806F71
:1038D00006D1201D0121FFF723FD002818BF054652
:1038E000236858031AD5314A616FD2F8883023F023
:1038F00040630B43B1F1006FC2F8883004D1D36844
:1039000043F48013D36009E0B1F1806F06D1201D2C
:103910000121FFF705FD002818BF0546236859045B
:103920001BD52249A26FD1F8883023F040531343AE
:10393000B2F1805FC1F8883004D1201D0221FFF769
:10394000EFFC07E0B2F1005F07D104F12000022193
:10395000FFF79CFD002818BF054621680A0441BFF7
:103960001248D0F8883023F08042E36F44BF1343FD
:10397000C0F88830CB0315D50C49D1F8883023F036
:103980000042D4F880301343C1F888300AE0D7F8F9
:10399000903023F44072D4F884301343C7F8903049
:1039A0003546D0E6284603B0BDE8F083001002405B
:1039B000054BD3F8902022F02002C3F890209A699A
:1039C00022F400729A61704700100240024A1368A4
:1039D00043F004031360704700100240704700007A
:1039E0002E4A0368904212D0B0F1804F0FD0A2F55A
:1039F000943290420BD002F58062904207D002F5DB
:103A00008062904203D002F59432904219D14A6804
:103A100023F070031343214A90421DD0B0F1804F30
:103A20001AD0A2F59432904216D002F580629042EC
:103A300012D002F5806290420ED002F5943290428C
:103A40000AD0174A904207D002F58062904203D014
:103A500002F58062904203D1CA6823F44073134395
:103A600003608B68C3620B6883620C4B98420FD073
:103A700003F5006398420BD003F54063984207D0EA
:103A800003F58063984203D003F58063984201D127
:103A90000B69036301234361704700BF002C0140A1
:103AA0000040014010B50446A0B190F8393003F051
:103AB000FF021BB980F83820FFF790FF022384F83B
:103AC00039302068211DFFF78BFF012384F839303E
:103AD000002010BD012010BD10B50123046A8B40E9
:103AE00024EA03030362036A8A401343036210BD9E
:103AF00010B5044601220068FFF7EEFF23680E4A66
:103B000093420FD002F5006293420BD002F540625F
:103B1000934207D002F58062934203D002F580629F
:103B2000934203D15A6C42F400425A641A6842F03C
:103B300001021A60002010BD002C014070470000F7
:103B4000F8B504460568A2682169C369286811436D
:103B500062690A4342EA0301A84A02400A432A6012
:103B60006A6822F44051E2680A436A60A44AA16983
:103B700095421CBF226A1143AA6822F430620A43AC
:103B8000AA60A04A954207D102F558429E49D2F850
:103B9000882002F0030209E09C4A95420CD102F50C
:103BA000E6329B49D2F8882002F00C02B3F5004FB0
:103BB0008A5C40F09C8054E0964A954210D102F510
:103BC000E432D2F8882002F03002102A65D002D800
:103BD000002A4FD07DE0202A55D0302A69D078E0E5
:103BE0008D4A95420ED102F5E232D2F8882002F0D9
:103BF000C002402A00F0AF8027D9802A00F0F4806C
:103C0000C02A2BE0854A954211D102F5E032D2F864
:103C1000882002F44072B2F5807F00F09C8014D9B5
:103C2000B2F5007F00F0E080B2F5407F16E0744A04
:103C300095424ED102F5C832D2F8882002F4406293
:103C4000B2F5806F00F0878002D8002A7CD03CE07B
:103C5000B2F5006F00F0C880B2F5406F00F0BC8094
:103C600033E0082A39D8DFE802F0080B11381B3896
:103C700038382700B3F5004F43D1FFF703FB11E0BD
:103C8000FFF718FB0EE0B3F5004F40D16068420823
:103C900002F1F47303F5904312E0B3F5004F3FD106
:103CA000FEF752FF63685A0802EB4000B0FBF3F3E3
:103CB00008E0B3F5004F3DD16068430803F5803359
:103CC000B3FBF0F39BB2002209E04D4A954200F0AD
:103CD0009280B3F5004F40F08E800122002323F044
:103CE0000F002168C3F342030343CB6084E0082A3A
:103CF00000F28180DFE802F005080B7F147F7F7FF0
:103D00001E00FFF7BFFA0DE0FFF7D4FA0AE0616882
:103D10004A0802F5740303F51053B3FBF1F30FE007
:103D2000FEF712FF636800EB5300B0FBF3F080B2C4
:103D3000E86007E06268530803F50043B3FBF2F361
:103D40009BB2EB60002257E02D4A954292D1FFF7DB
:103D500099FA002305E02A4A95429ED1FEF7F4FE27
:103D600004230028EED0626802EB4201884242D36D
:103D7000B0EB023F3FD8082B25D8DFE803F005243D
:103D800008240D2424241900FFF77CFA06E02448B7
:103D900053080021C0180FE0FEF7D6FE6268002726
:103DA00056084FF48073E3FB00673046394605E060
:103DB0005008002110F5000041F1000100230AF035
:103DC000A7FB002200E00122164BA0F540719942AA
:103DD00011D82368D8600FE0094A95427FF469AF93
:103DE00008234FF40040BEE7054A95427FF44BAFED
:103DF00002230D48B7E701221046F8BDF369FFEF33
:103E0000008000400038014093FE0008004400405C
:103E100097FE000800480040004C00400050004061
:103E2000000024F4FFFC0F000024F400436ADA07CA
:103E300010B541BF0468626822F40031826A44BF51
:103E40000A4362609C0741BF0468626822F48031C3
:103E5000C26A44BF0A436260590741BF046862688E
:103E600022F48021026B44BF0A4362601A0741BFFB
:103E70000468626822F40041426B44BF0A436260F6
:103E8000DC0641BF0468A26822F48051826B44BF03
:103E90000A43A260990641BF0468A26822F4005157
:103EA000C26B44BF0A43A2605A0610D50168046C75
:103EB0004A6822F480122243B4F5801F4A6001BF91
:103EC0004A6822F4C004426C224308BF4A601B06C1
:103ED00041BF01684B6823F40022836C44BF134345
:103EE0004B6010BD2DE9F041069D04460E46174675
:103EF00098462268D0693040831B58425841B842E6
:103F00001DD1691CF6D09DB923681A6822F4D072BD
:103F10001A609A6822F001029A60202384F86930BE
:103F200084F86A30002384F868300320BDE8F0810B
:103F3000FDF722FEC8EB0000A842DAD9E4E7002032
:103F4000BDE8F08173B504460026C666FDF714FE91
:103F500023681B681A07054604D423681B685B079F
:103F60001AD50DE06FF07E43009320464FF4001108
:103F700032462B46FFF7B6FF0028EED0032013E0B1
:103F80006FF07E43009320464FF4800100222B46C1
:103F9000FFF7A8FF0028F1D12023002084F8693022
:103FA00084F8680084F86A3002B070BD10B5044629
:103FB00060B390F8693003F0FF021BB980F8682005
:103FC000FFF7BCFD2268242384F86930136823F0CE
:103FD000010313602046FFF7B3FD012816D0636A82
:103FE00013B12046FFF722FF23685A6822F490425B
:103FF0005A609A6822F02A029A601A6842F0010216
:1040000020461A60BDE81040FFF79CBF012010BD9C
:10401000264B27491A68120754BFD3F894201A6810
:10402000986854BFC2F30322C2F3031200F00C00DD
:1040300010B551F822401F490C282DD8DFE800F0B8
:104040002C2C2C2C072C2C2C092C2C2C0B001A4A39
:1040500020E01A4A1EE0D868DA6800F00300C2F3D4
:104060000212022802F1010203D0032805D11348ED
:1040700000E01148B0FBF2F201E0B4FBF2F2D868C4
:10408000DC68C0F306204243C4F3416001304000C5
:10409000B2FBF0F20A6000E00C609B68084AC3F3D0
:1040A0000313D25C0B68D3400B6010BD00100240BC
:1040B000BCFE0008080000200024F40000127A0072
:1040C000A4FE000870B5B8B000211422684601F0C3
:1040D0005DFD0021442205A801F058FD16A800212D
:1040E000882201F053FD0423059305A801230793BB
:1040F000FEF7C6FD20B9204A136843F0040313609D
:10410000FFF756FC1323059301230B93109306230B
:10411000B0221193282300240D9212930222072328
:10412000042505A8069408940C940F9213931495F3
:104130001595FEF7A5FD0646D8B9FFF747FC4FF4E5
:104140000053169316A84FF040633193FFF740FADF
:104150000F2203238DE80C0068464FF48063294644
:10416000029603960493FEF7D1FFB0FA80F040095F
:1041700000E0204638B070BD0010024008B5FFF7DF
:10418000A1FF00B9FEE708BD174AD2F8883010B584
:1041900043F47003154CC2F888302368002143F0C3
:1041A00001032360A160236823F0A85323F41023A4
:1041B00023604FF48053E360236823F4802323605B
:1041C0004FF00063A1619360094B0A4A1A60FDF742
:1041D000C0FCFFF7D3FFA36B43F00803A363A36BFB
:1041E00023F00803A36310BD00ED00E000100240BF
:1041F0000800002000093D00054B186830B9012275
:104200001A60044B044A1A60FCF724BC704700BFD4
:10421000EC0D0020740E0020000C004008B5044B8B
:104220001B680BB9FFF7E8FF024B586A08BD00BFD7
:10423000EC0D0020000C0040044B054A136058634D
:10424000DA6842F00202DA60704700BF000C0040FA
:10425000740E0020034B044A1360DA6822F0020255
:10426000DA607047000C0040740E0020034A044BD3
:1042700013606FF002021A61704700BF740E0020D5
:10428000000C004010B50023036043600A782F2A19
:10429000044613D14A788AB1481C20601946236825
:1042A0001A782F2A02D10133236004E01AB10133B6
:1042B00001312360F3E700F083FC6060204610BD0D
:1042C00000687047406808B520B100F02CFC431E20
:1042D0005842584108BD10B50446FFF7F3FF00B13E
:1042E000606810BD406808B520B100F01CFCB0FA51
:1042F00080F0400908BD10B50446FFF7F3FF10B188
:10430000606800B1043810BD4068003018BF01205B
:10431000704710B580B1146853680CB9DA070BD533
:1043200013F0010F4FEA63031CBFC258145918441D
:104330002346BDE81040184710BD0000F7B51A4BE2
:10434000036000230F460093019302A90361044612
:10435000164600F1180211E9030082E80300134930
:10436000216248F207016162E362A4622263104A9B
:104370006263BFF36F8FBFF34F8F04F13C0584F886
:10438000383019462846982201F000FC094BC4F841
:10439000D430284639463246FCF750FD064B2046BD
:1043A0001C6003B0F0BD00BFF8FE000801A090E85B
:1043B00013430008A0860100F00D0020036870B5CB
:1043C00004460D461B68984704F13C00C4F8D450DD
:1043D0002946FCF779FC044B1C60236820465B6887
:1043E000BDE87040184700BFF00D0020036870B5AD
:1043F000094D1B68044698472B68A34206D004F178
:104400003C00D4F8D410FCF75FFC2C6023682046F5
:104410005B68BDE870401847F00D0020F7B51D46F9
:10442000036804461B680F46164698472046FFF768
:10443000DDFF9DF8203083F00103324600933946BA
:104440002B4604F13C00FCF725FE236806465B681A
:1044500020469847A81B18BF012003B0F0BDF7B550
:104460001D46036804461B680F46164698472046BB
:10447000FFF7BCFF9DF8203083F001033246009324
:1044800039462B4604F13C00FCF79CFD23680646A8
:104490005B6820469847A81B18BF012003B0F0BDF9
:1044A000C36810B504460BB19B689847204610BD01
:1044B00010B5044B044640F8043BFFF7F1FF2046DB
:1044C00010BD00BFF8FE000810B50446FFF7F0FF6E
:1044D0002046FDF7EBF8204610BD000008B5024865
:1044E000FDF7E8F808BD00BFF40D002008B502484C
:1044F000FDF7E0F808BD00BFF40D00207047A0F103
:104500004C00FFF7FBBF7047A0F14C00FFF7FBBF6B
:1045100000F0CAB8A0F14C00FFF7FABF00F0C7B82E
:10452000A0F14C00FFF7FABF38B504461D46049BC6
:1045300000F0C4F804F14C00294600F049F8054B9E
:1045400003F10802226003F128026433E264236568
:10455000204638BD08FF000800207047F8B5036802
:104560005B6A0E4604468F1898473546BD4208D010
:10457000236815F8011BDB6A204698470130F5D106
:104580002F46236820469B6A9847B81BF8BDF8B5AC
:1045900003685B6A0E4604468F1898473546BD424D
:1045A00008D0236820461B6B9847431C02D005F8AF
:1045B000010BF4E7236820469B6A9847A81BF8BDC7
:1045C000002070470020704700207047002070478F
:1045D0001FB5044600F014FB0B4B0C4903F1080215
:1045E0004433636000236361226001A8224601F026
:1045F00045FC074901A800F083FD6061FDF73CF828
:10460000204604B010BD00BF78FF00088FFD0008F1
:10461000C4FF000810B5074B03F1080244330446F9
:1046200002604360406900F069FB204600F0FCFA3C
:10463000204610BD78FF00080EB477B5036807ADBB
:10464000044655F8046B5B6A98476069019500F071
:104650001DFC3146019A606905F03EFA2368054663
:104660009B6A20469847284603B0BDE8704003B0D7
:10467000704770477047704770B50901441801F1E1
:104680002805636B05442BB90548064940F2E7123B
:1046900000F0BEF9636B28461B68BDE87040184700
:1046A000C7FF0008CCFF00080430FDF7FDB910B5C6
:1046B00004300C46FDF71AFA204610BD2DE9F843E8
:1046C000054699461A4B45F8043B0446884617466A
:1046D00028462422002101F059FA04F1280600227C
:1046E00062636264C4F848903046FBF797FF1EB1DE
:1046F000104BA362104B636304F138063046FBF79E
:104700008DFF1EB10B4BA3630B4B63643A462846E7
:104710004146FDF7B9F82846A16CFDF7A9F92846EE
:1047200006492246FDF7A8F92046BDE8F88300BFF8
:104730002000010873460008C8F600087946000802
:104740004368416970B50446194400F053F8636A40
:1047500004F118052BB90648064940F2E71200F0AB
:1047600057F9636A28461B68BDE87040184700BFC8
:10477000C7FF0008CCFF000838B505460C4600F01E
:1047800061F9284600F03CF86C61286900F033F9C3
:104790000119284600F02EF8BDE8384000F07CB939
:1047A00038B5044604F1180500F04CF9204600F035
:1047B00027F82846FBF732FF0DB100236362BDE8FE
:1047C000384000F069B903689B681847074B10B57B
:1047D0000360002343608360C360044600F00EF969
:1047E0000349206100F09AF8204610BD50000108EE
:1047F000C747000803460A460069191D00F0BBB808
:1048000001460431006900F0D7B8000010B5034B31
:1048100003600446FFF7F4FF204610BD5000010876
:1048200038B5B0F90030013304460D4604D10648CE
:104830000649352200F0ECF863680DB1E26800E04B
:104840002269136038BD00BFD4F600085C0001087F
:1048500070B50E4604461546FCF798F801360DD0A3
:1048600020462946FFF7DCFF20460121FCF7AAF885
:1048700020460021BDE87040FCF7A0B870BD0022C2
:10488000FFF7E6BF10B50446013001D110BD0C3171
:10489000B1F900305A1C0BD0A342F8D120468968E8
:1048A000FCF77EFD20460021BDE81040FCF7A6BDC8
:1048B0000248BDE8104000F00DB900BFCD0001086E
:1048C000884208B50AD0431C07D0013106D00448FD
:1048D00000F000F94FF0FF3008BD084608BD00BFEA
:1048E000DE000108B1F900305A1C05D0834201D125
:1048F000486870470C31F5E718467047421C10B500
:10490000044607D0FFF7EEFF431C044602D10248DD
:1049100000F0E0F8204610BDEF00010838B503684C
:1049200004461B680D46984763681D6038BD0368E0
:1049300070B5DB680446984763685A6823681AB9FB
:104940009B68BDE8704018475B6815689847281A4F
:104950000028636808DC5A68916859601B68002B5E
:10496000EAD050689847E7E721685A680B691068F1
:10497000BDE870401847F8B507460D461C46164678
:1049800000F060F879686C604C682E60002334B1E8
:104990002268B21A002A02DB2346A468F7E72BB983
:1049A0003B684D601B693046984700E09D60AC60F5
:1049B000BDE8F84000F070B838B505460C4600F088
:1049C00041F86A685368A3420BD19B6853602A6818
:1049D00013B9936898470AE012691868904706E08F
:1049E000134623B19A68A242FAD1A2689A60BDE840
:1049F000384000F051B803685B68184700487047BA
:104A0000440101080148FFF792BF00BF44010108BB
:104A100070B506460D46144600F014F831462A4695
:104A200023460348FCF740FCBDE87040FCF70ABC95
:104A30004C010108EFF3108000F0010080F001004C
:104A40007047000038B5FFF7F5FF80F00100C5B2F0
:104A500072B60C4C23680BB90B4B1D7023680133E5
:104A600004D10A480A493522FFF7D2FF23682BB147
:104A700025B9084806493922FFF7CAFF23680133E0
:104A8000236038BD040E0020080E00207D010108BF
:104A9000A3010108E601010810B50A4C236883B19F
:104AA000FFF7C8FF20B1084808494A22FFF7B0FFC6
:104AB0002368013B236023681BB9054B1B7803B9AE
:104AC00062B610BD040E0020E6010108A301010832
:104AD000080E00200FB407B504A951F8040B01918A
:104AE000FCF7BAFB012000F0B7F838B50446FFF731
:104AF00095FB0546FFF792FB401BA042FAD338BD59
:104B000007EE100ADFED047A67EE277AFDEEE77A0A
:104B100017EE900AFFF7E9BF002474494FF47A7347
:104B20005843FFF7E2BF007B7047000038B50446EA
:104B30000A4B0360002343600D46A16002730848DE
:104B4000FCF7B8FD25B1074B1A6862601C6000E0F5
:104B500065600348FCF7AEFD204638BD0802010839
:104B6000100E00200C0E002010B50D4B0360044603
:104B70000C48FCF79FFDA3686BB10B4A1368A34276
:104B800002D16368136006E05A68A24201D013465E
:104B9000FAE762685A600348FCF78CFD204610BDB6
:104BA00008020108100E00200C0E002010B504466B
:104BB000FFF7DAFF2046FCF779FD204610BD000024
:104BC00070B506460C480D46FCF774FD0B4B1C688F
:104BD0006CB1A06848B131462A4601F08DFB20B97E
:104BE000A06801F05BFBA84201D06468F0E70248CE
:104BF000FCF760FD204670BD100E00200C0E00205A
:104C000010B5074B0446002240F8043BFFF78EFF27
:104C1000044B03F108023C3322606360204610BD60
:104C2000A8FD00081002010810B5074B03F10802A7
:104C30003C330446026040F8043FFFF795FF2046EE
:104C4000FCF74EFD204610BD10020108014B18680C
:104C5000704700BF3804002008B50021044605F065
:104C60007DF8044B1868C36B03B198472046FCF7E6
:104C7000EFFC00BF5802010800293DD070B5054681
:104C80000C4608B1836B7BB3B4F90C300BB9002030
:104C900070BD2846214600F039F8E36A064633B174
:104CA0002846E16998470028B8BF4FF0FF36A3892E
:104CB0001B061CD4216B41B104F14003994202D080
:104CC000284609F0F7FE00232363616C21B12846D2
:104CD00009F0F0FE0023636400F0CAF90023A38109
:104CE00000F0C8F9304670BD00F0BCF9CCE72846AA
:104CF000216909F0DFFEDDE700207047024B014625
:104D00001868FFF7B9BF00BF380400208B899AB23A
:104D10002DE9F0410D46110780463CD46A6843F402
:104D20000063002AAB8165DDAE6A002E4BD09BB2DA
:104D300003F48052002192B2D8F80040C8F8001065
:104D4000002A5BD02A6D5F0705D569682B6B521A64
:104D50000BB1EB6BD21A4046E9690023B047461C01
:104D600056D0AB892A692A6023F400639BB20022E3
:104D70006A60DA04AB813BD4296BC8F8004011B3F8
:104D800005F14003994202D0404609F093FE00200D
:104D90002863BDE8F0812E69AEB12C682E609107C2
:104DA0000CBF6B690023A41BAB600AE032462346AC
:104DB0006F6AE9694046B8470028A4EB000406443E
:104DC00004DD002CF2DC0020BDE8F081AB8943F06B
:104DD0004003AB814FF0FF30BDE8F081AB892A6919
:104DE000696023F400639BB2AB81DB042A60C3D506
:104DF0002865C1E7EA6B002A96DCE4E70123404618
:104E0000E969B047431C024619D0AB89AE6A9AE7FC
:104E1000D8F800100029E1D01D2907D0162905D0A7
:104E2000AB8943F04003AB81BDE8F081AB892A69CF
:104E30002A6023F400630022AB816A609CE7D8F803
:104E40000030002BE1D01D2B07D0162B05D0AB89ED
:104E500043F04003AB81BDE8F081C8F80040B2E701
:104E600010B5044682B008B1836B53B1B1F90C00A0
:104E700008B902B010BD204602B0BDE81040FFF7EF
:104E800045BF019100F0EEF80199EFE720B1054B25
:104E900001461868FFF7E4BF034B0449186800F0A7
:104EA0005BBC00BF3804002058020108614E0008B6
:104EB000014900F051BC00BF794C00082DE9F04FCA
:104EC000354B4568C3630024074600F53B72042355
:104ED0000321C0F8E412C0F8E822C0F8E04283B031
:104EE0002C606C60AC606C66EC812C616C61AC61B8
:104EF000AB81214605F15C00082200F047FEBE6848
:104F0000DFF898B0DFF898A0DFF89890DFF8988085
:104F1000C5F820B001230922C5F824A0C5F82890BF
:104F2000C5F82C80ED612146F381B28106F15C0069
:104F300034607460B460746634617461B461082272
:104F4000019300F023FEFD68F66112200222C6F8EC
:104F500020B0C6F824A0C6F82890C6F82C802146B8
:104F6000A881EA812C606C60AC606C662C616C611D
:104F7000AC6105F15C00082200F008FE019BED61C8
:104F8000C5F820B0C5F824A0C5F82890C5F82C8035
:104F9000BB6303B0BDE8F08FB14E0008215F00088D
:104FA000495F0008815F0008A15F000870B56823B1
:104FB0004D1E03FB05F50E4605F1740109F076FD63
:104FC000044640B100210C30666005F168022160A2
:104FD000A06000F0DBFD204670BD00BF204B70B527
:104FE0001D68AB6B064613B92846FFF767FF05F54A
:104FF00038756B68AC68013B05D521E0013B5A1C54
:1050000004F168041CD0B4F90C20002AF6D1002564
:1050100001234FF6FF72E281A38165662560A560DA
:10502000656025616561A561294604F15C0008227F
:1050300000F0ACFD256365636564A564204670BD22
:105040002B680BB11D46D4E730460421FFF7AEFFB5
:10505000286008B10546CCE70C23336070BD00BF63
:1050600058020108836B03B17047FFF727BF00BFE9
:10507000704700BF704700BFF0B583B00F461146C0
:1050800001AA064605F0E2FE0546E8B13046FFF704
:10509000A5FF0446C0B139463046019A4FF4DB7390
:1050A00000F0C2FD00281BDB114B124F1249134ABE
:1050B000E362EB05E081A581E46127626162A2629F
:1050C00005D4204603B0F0BD002003B0F0BD30464B
:1050D00021460022022300F01BF8204603B0F0BD59
:1050E0000025FFF7C5FFA581FFF7C4FF2846E9E7C4
:1050F000A15F0008215F0008495F0008815F000888
:10510000024B0A4601461868FFF7B6BF3804002074
:1051100000F000B82DE9F04F0C4691B091461E46C4
:10512000054610B1836B002B73D0A38903F48473FD
:10513000B3F5847F75D0D4F82880B8F1000F00F063
:105140003E81012E4AD0022E08D03EB116232B609C
:105150004FF0FF37384611B0BDE8F08F4FF0000A2E
:1051600023695746002B00F01581A28940F61A03E7
:1051700091B20B4043B949055ED4934B984500F07A
:10518000F68042F40062A28128462146FFF768FEBD
:1051900007460028DCD14A4633462846E169C04725
:1051A0000130D5D0216B41B104F14003994202D0C6
:1051B000284609F07FFC00232363A389226922602B
:1051C00023F402630021A381616004F15C000822E2
:1051D00000F0DCFC384611B0BDE8F08F28462146CF
:1051E000FFF73EFEA38903F4805292B2002A00F03A
:1051F000B480276D5E075CD4180740F1AC8022684C
:1052000023690AB1D21A1744B9444FF0010A0026A3
:10521000A8E7FFF727FFA38903F48473B3F5847F1E
:1052200089D128462146FFF71BFE84E7A3894FF466
:1052300080621343A381E264002E43D1CB46BAF1CE
:10524000000F4ED1A389DA0440F1A980206D636874
:10525000216BC71A002900F0AB80E26BBF1A1F4414
:105260002069A36B1B1AFF1A1344BB453FDBFA18D6
:1052700093453CD2C7EB0B073844DB1B84E809009D
:1052800041B104F14003994202D0284609F012FCD2
:1052900000232363A38923F02003A38104F15C008E
:1052A0000021082200F072FC0027384611B0BDE84A
:1052B000F08F6268236BBF1A002B4CD0E26B23691E
:1052C000BF1AA1E72846B4F90E1001AA00F07EF833
:1052D00000287FF459AF059B09EB030BBAF1000FCF
:1052E000B0D0216B6368002962D0E26BB7E7E76C4E
:1052F000E1697F420BEA07073A4628460023C04788
:1053000001303FF441AF2369216B236000236360C8
:1053100041B104F14003994202D0284609F0CAFB8A
:1053200000232363A389BBEB070B23F02003A38196
:10533000B4D02846214600F095FC00287FF424AF25
:10534000626893453FF620AF2368CBEB02025B44D3
:1053500062602360A2E7236956E733462846E16985
:10536000C047431C07463FF4F3AEA38942E7B4F9B4
:105370000E100029FFF605AF284601AA00F026F816
:1053800030B9029B03F47043B3F5004F3FF44EAFC6
:10539000A289F6E62846214600F030FAE5E6012328
:1053A00052462846E169C047431C7FF450AFEBE604
:1053B00022682069121ABF1A1344002155E71D23E1
:1053C0002B604FF0FF37C5E6815F000838B5084C09
:1053D00000230546084611462360FCF7F5F8431CF8
:1053E00000D038BD2368002BFBD02B6038BD00BF38
:1053F000B00E00209368002B7AD02DE9F04FB1F861
:105400000CE01EF0080F83B00C468146164626D0ED
:105410000B6923B30EF002081FFA88F0356870B3E9
:105420004FF0000ADFF8E0B2D046D8454346524676
:1054300028BF5B464846B8F1000F53D0E169676A60
:10544000B847002873DDB3681B1A8244C0EB080814
:10545000B360002BE9D1002003B0BDE8F08F4846CF
:10546000214604F00FFC002840F04581B4F80CE020
:1054700035680EF002081FFA88F00028D0D11EF01F
:10548000010B5DD1D846B8F1000F25D01EF4007F86
:10549000A7682FD0B845BA46C0F0A9801EF4906F17
:1054A00040F0B68020685246594600F00BFBA068D9
:1054B0002268C01B02EB0A03A06023604046B36869
:1054C0001B1A8344C0EB0808B360002BC3D0B4F8A8
:1054D0000CE0B8F1000FD9D1D5F800B0D5F80480B0
:1054E0000835D0E7D5F800A0D5F8048008359CE74A
:1054F0000020704720682369984203D8626990456C
:1055000080F0B980474528BF47463A46594600F0E3
:10551000D9FAA3682268DB1B3A44A3602260002BFF
:105520004AD148462146FFF79BFC002844D0A38976
:1055300043F040034FF0FF30A38103B0BDE8F08F8C
:105540008046009083468246BAF1000F2CD0009B23
:10555000002B50D020682169D4F808E06269D0455A
:10556000434628BF534688421F4604D90EEB020C1F
:10557000634500F39280934220DB1346676AE1693A
:1055800048465A46B847071ED1DDB8EB070825D074
:10559000B368DB1BBB44C7EB0A0AB360002B3FF4C4
:1055A0005AAFBAF1000FD2D10023D5F800B0D5F828
:1055B00004A000930835C7E7384680E71A465946E5
:1055C000019300F07FFAA2682168019BB8EB0708FD
:1055D000A2EB03020B44A2602360D9D148462146C6
:1055E000FFF73EFC0028A2D1CDF80080D0E720686C
:1055F0004746C24657E758460A21524600F07EF910
:10560000002873D001300123CBEB00080093A1E701
:1056100067692169236807EB47075B1A07EBD777B0
:10562000581C7F10404487423A463CBF07463A46E2
:105630001EF4806F009346D01146484609F036FAB2
:10564000009B8246002859D01A462169009300F039
:105650009FF9A289009B22F4906242F08002A2810D
:105660000AEB0300FB1AC4F810A067612060A36076
:105670004746C24617E76FF00043434528BF4346FD
:10568000676A93FBF2F3484603FB02F3E1695A466B
:10569000B84700283FF713AF49E762465946CDF8AF
:1056A00004C000F00FFA2368DDF804C063442360EF
:1056B00048462146FFF7D4FBDDF804C000287FF4FC
:1056C00036AF674661E7484609F0F2F9009B82462B
:1056D0000028C5D14846216909F0ECF9A3890C22BC
:1056E00023F080039BB2C9F8002021E701230AF1CF
:1056F000010800932EE74FF0FF30ADE60C23C9F808
:105700000030A38914E700BF00FCFF7F2DE9F041C2
:1057100010F538771BD0884600267D68BC68013DAF
:105720000FD4A389012B05F1FF3506D9B4F90E304A
:105730000133204601D0C04706436B1C04F16804C6
:10574000EFD13F68002FE8D13046BDE8F0813E46FA
:105750003046BDE8F08100BF2DE9F84310F53877F9
:105760001FD0884606464FF000097D68BC68013DA1
:1057700011D4A389012B05F1FF3508D9B4F90E30F6
:1057800001332146304602D0C04749EA00096B1C6C
:1057900004F16804EDD13F68002FE6D14846BDE82A
:1057A000F883B9464846BDE8F88300BF70B50F4E90
:1057B0000F4D761BB61018BF002405D0013455F8E4
:1057C000043B9847A642F9D10A4E0B4D761B09F0CF
:1057D00065FFB61018BF002406D0013455F8043B0D
:1057E0009847A642F9D170BD70BD00BFB408002033
:1057F000B4080020C0080020B40800208B899AB2A9
:1058000012F0020F3CD1F0B50C46B1F90E10002990
:1058100091B0054619DB01AAFFF7D8FD002812DB7D
:10582000029B03F47043B3F5004FA3F50057B7FA9A
:1058300087F74FEA57172AD0A38943F40063A3815F
:105840004FF480660BE0A3899AB212F0800F43F404
:105850000063A3810CBF4FF48066402600272846D2
:10586000314609F023F9A38940B31A4AEA6343F0A9
:105870008003A3812060206166619FB911B0F0BDF3
:1058800001F1430301220B600B614A617047124B27
:10589000A26A9A42D0D1A3894FF480663343A38190
:1058A000E664DCE72846B4F90E1005F009FB002891
:1058B000E4D0A38943F00103A381DFE79A05DDD497
:1058C00004F1430243F002030121A381226022611B
:1058D0006161D3E7B14E0008815F0008024B0146C9
:1058E000186809F0E3B800BF38040020024B0146F5
:1058F000186809F0DFB800BF38040020830770B4CF
:10590000C9B240D0541E002A3FD003788B4218BF42
:10591000431C06D11DE0F4B102788A4204F1FF3441
:1059200017D013F0030F184603F10103F3D1032C32
:1059300014D884B103788B420BD00519431C02E0C4
:1059400002788A4205D0AB42184603F10103F7D131
:10595000002070BC7047204670BC704741EA0126A9
:10596000024646EA06461046043203687340A3F135
:10597000013525EA030313F0803FDAD1043C032C00
:105980001046F0D8D5E71446D1E71046E1E700BF4E
:10599000844641EA000313F003036DD1403A41D33A
:1059A00051F8043B40F8043B51F8043B40F8043BF9
:1059B00051F8043B40F8043B51F8043B40F8043BE9
:1059C00051F8043B40F8043B51F8043B40F8043BD9
:1059D00051F8043B40F8043B51F8043B40F8043BC9
:1059E00051F8043B40F8043B51F8043B40F8043BB9
:1059F00051F8043B40F8043B51F8043B40F8043BA9
:105A000051F8043B40F8043B51F8043B40F8043B98
:105A100051F8043B40F8043B51F8043B40F8043B88
:105A2000403ABDD2303211D351F8043B40F8043B28
:105A300051F8043B40F8043B51F8043B40F8043B68
:105A400051F8043B40F8043B103AEDD20C3205D338
:105A500051F8043B40F8043B043AF9D2043208D030
:105A6000D2071CBF11F8013B00F8013B01D30B88A2
:105A700003806046704700BF082A13D38B078DD080
:105A800010F003038AD0C3F10403D21ADB071CBF52
:105A900011F8013B00F8013B80D331F8023B20F8BC
:105AA000023B7BE7043AD9D3013A11F8013B00F8F5
:105AB000013BF9D20B7803704B7843708B7883707D
:105AC000604670478842F0B50DD98B1898420AD2CB
:105AD0008118002A54D09A1A13F8014D01F8014D8B
